:020000040800F2
:1000000038530020B902000831340008BB2B000827
:100010002D340008411E0008413700080000000090
:1000200000000000000000000000000099340008FB
:10003000711E0008000000006D3400089B340008A9
:10004000D3020008D3020008D3020008D30200083C
:10005000D3020008D3020008731E0008D302000870
:10006000D3020008D3020008D3020008D30200081C
:10007000D3020008D3020008D3020008D30200080C
:10008000D3020008D3020008D3020008D3020008FC
:10009000D3020008D3020008D3020008D3020008EC
:1000A000D3020008D3020008D3020008D3020008DC
:1000B000D3020008D3020008D3020008D3020008CC
:1000C000D3020008D3020008D3020008D3020008BC
:1000D000D3020008D3020008D3020008D3020008AC
:1000E000D3020008D3020008D3020008D30200089C
:1000F000D3020008D3020008D3020008D30200088C
:10010000D3020008D3020008D3020008D30200087B
:10011000D3020008D3020008D3020008D30200086B
:10012000D3020008D3020008D3020008D30200085B
:1001300000F002F800F0B0F80AA090E8000C824449
:100140008344AAF10107DA4501D100F0A5F8AFF226
:10015000090EBAE80F0013F0010F18BFFB1A43F0A5
:100160000103184798DC0300B8DC03000A444FF091
:10017000000C10F8013B13F0070408BF10F8014B06
:100180001D1108BF10F8015B641E05D010F8016B4B
:10019000641E01F8016BF9D113F0080F1EBF10F8AF
:1001A000014BAD1C0C1B09D16D1E58BF01F801CBD2
:1001B000FAD505E014F8016B01F8016B6D1EF9D555
:1001C0009142D6D37047000000230024002500266A
:1001D000103A28BF78C1FBD8520728BF30C148BFAA
:1001E0000B6070476E2900F0F283702900F03F85A4
:1001F000662932F07986652932F07686672932F0F1
:100200007386612932F0728603681B0A28BF41F0A9
:100210008001692900F04A81642900F0478175292D
:1002200000F044816F2900F0CC84782900F00B8520
:10023000E92900F06784E42900F06484F52900F0DE
:100240006184EF2900F0C984F82900F00A85036869
:10025000DB0928BF41F08001632900F0D6837329B0
:1002600000F0DB83E32901F00181F32901F006812D
:10027000002070471FB501F057F90400002000214D
:1002800032F01CFE401C60600020002132F000FEB5
:10029000E0601FBD10B510BD01F018F91146FFF761
:1002A000E9FF2DF07FF801F0F5F903B4FFF7F2FF55
:1002B00003BC05F031FB00000948804709480047AE
:1002C000FEE7FEE7FEE7FEE7FEE7FEE7FEE7FEE706
:1002D000FEE7FEE704480549054A064B7047000063
:1002E0000935000831010008384900203853002042
:1002F000384B0020384B0020704753EA020C00F0C6
:1003000069802DE9F04B4FF00006002B1FBFB3FAB8
:1003100083F503FA05F424FA05F65E4012BF16438E
:10032000B2FA82F502FA05F4C5F120051EBF22FAE1
:1003300005FC44EA0C04203556EA044C4FEA144408
:1003400018BF641C4FF000084FF00009904271EB99
:10035000030C39D3002919BFB1FA81F701FA07F666
:10036000B0FA80F700FA07F6C7F120071EBF20FA9F
:1003700007FC46EA0C062037B6FBF4FCA7EB0507A2
:10038000103F07F01F0BCBF120060CFA0BFB2CFAE9
:1003900006F644BFB3460026202FA4BF5E464FF0AA
:1003A000000B5BEA060C08BF4FF0010B19EB0B09C1
:1003B000ABFB027C48EB0608C01B06FB02CC0BFB28
:1003C00003CC71EB0C01C1E70B460246414648469F
:1003D000BDE8F08B13B54FF000004FF00001AFF314
:1003E0000080BDE81C4070470A46014900F01ABB76
:1003F000080000200FB4044910B503AA029800F0C9
:1004000011FB10BC5DF814FB0800002070B5044619
:1004100085690068C10601D5302600E02026C007A6
:1004200007D070BDD4E9012130469047206A401CB6
:1004300020626D1EF6D570BD70B5044685690078E2
:10044000C00707D170BDD4E9012120209047206A60
:10045000401C20626D1EF6D570BD70B50C46054679
:10046000012A05D02878800600D5EA69002302E039
:10047000012305E05B1C934202D2E05C0028F9D125
:10048000A869E618C01AA861286A18442862284694
:10049000FFF7BCFF04E0D5E9012114F8010B9047F8
:1004A000B442F8D32846FFF7C7FF70BD2DE9F041ED
:1004B0000646002410687529314616A510D000F0B4
:1004C0001BFA002802DA404213A507E031688A07C8
:1004D00001D512A502E0490704D511A5012401E0C8
:1004E00000F013FA00210A2206F1240709E0B0FB0C
:1004F000F2FCB0FBF2F302FB1C00303078541846DB
:10050000491C0028F3D123462A463046BDE8F04175
:1005100000F004BA000000002D0000002B000000D5
:10052000200000002DE9F05F894604464FF0000AE4
:10053000DFF874B1FB44C0F820A02046E16888478A
:10054000002874D0252806D0D4E901219047206ADC
:10055000401C2062F1E700265F462046E16888479C
:100560002028054607DB312D05D2781910F8200C1C
:1005700008B10643F1E7B00701D526F00406C4F838
:100580001CA00027C4F818A02A2D09D0284603F083
:100590000BF938B304EB8708303DC8F8185019E060
:1005A00059F8041B204604EB87029161E1688847F3
:1005B000012F054618D1E069002820DA26F0200630
:1005C0001DE0D8F8180000EB800005EB4000303843
:1005D000C8F818002046E1688847054603F0E4F8AB
:1005E0000028EED1012F0AD02E2D08D12046E16837
:1005F00088477F1C0546022F46F02006C4DBA06911
:10060000002803DA404246F00106A061F00701D05D
:1006100026F010066C2D0BD0682D09D04C2D39D04A
:100620006A2D35D0742D35D07A2D33D016E038E0D0
:10063000E1682F4620468847B842054609D16C2F0D
:1006400026D04FF48060E16806432046884705467F
:1006500004E06C2F1AD04FF4807006430DB3A5F15F
:100660004100192802D8203546F400664A4629463A
:10067000204626604E46FFF7B5FD80B101280BD01D
:10068000F61D26F0070000F1080956E74020E4E7D0
:100690008020D8E70020D6E706F104094DE7284678
:1006A00052E7206ABDE8F09FE0CE030040EA010374
:1006B000024630B59B0710D14FF0013400E008C26C
:1006C00008C91D1B9D4315EAC41FF8D013F0FF0194
:1006D00002F8011B0DD01B0AF8E711F8013B002BB3
:1006E00002F8013B05D011F8013B002B02F8013B59
:1006F000F3D130BD10B5431C02E010F8011B71B1FD
:100700008107FAD14FF0013202C88C1A8C4314EAE7
:10071000C211F9D0C01A0A0603D0C01E10BDC01AFB
:1007200010BD0A0401D0801E10BD0902FCD0401E7D
:1007300010BD032A40F2308010F0030C00F0158049
:1007400011F8013BBCF1020F624498BF11F801CBD4
:1007500000F8013B38BF11F8013BA2F1040298BF39
:1007600000F801CB38BF00F8013B11F0030300F0A3
:100770002580083AC0F0088051F8043B083A51F847
:1007800004CBA0E80810F5E7121D5CBF51F8043B4C
:1007900040F8043BAFF30080D20724BF11F8013BBF
:1007A00011F801CB48BF11F8012B24BF00F8013B21
:1007B00000F801CB48BF00F8012B704710B5203A74
:1007C000C0F00B80B1E81850203AA0E81850B1E80A
:1007D0001850A0E81850BFF4F5AF5FEA027C24BFC0
:1007E000B1E81850A0E8185044BF18C918C0BDE8B7
:1007F00010405FEA827C24BF51F8043B40F8043B80
:1008000008BF7047D20728BF31F8023B48BF11F834
:10081000012B28BF20F8023B48BF00F8012B70478E
:100820004FF0000200B5134694469646203922BF89
:10083000A0E80C50A0E80C50B1F12001BFF4F7AFD4
:10084000090728BFA0E80C5048BF0CC05DF804EBB6
:10085000890028BF40F8042B08BF704748BF20F824
:10086000022B11F0804F18BF00F8012B70470000D9
:100870004FF0013C50F8042B51F8043B9A4221D12F
:10088000A2EB0C03934313EACC1317D150F8042BBB
:1008900051F8043B9A4215D1A2EB0C03934313EA9F
:1008A000CC130BD150F8042B51F8043B9A4209D1D8
:1008B000A2EB0C03934313EACC13DBD04FF0000000
:1008C000704700BFD01A01BAB1FA81F101F01801E6
:1008D00022FA01F0CB40C1F12001DBB2C0B2C01A54
:1008E0002CFA01F3D11A914311EAC311E6D17047F2
:1008F000704770477047704709684A0501D540B294
:100900007047C905FCD500B2704709684A0501D592
:10091000C0B27047C905FCD580B270472DE9F047D9
:100920000D4699469246044600F12408016888065F
:1009300004D5E06921F01001216000E00120A84207
:1009400001DD471B00E00027A1697A1902EB0900CD
:10095000081AA0612078C00602D42046FFF756FD91
:10096000002608E0D4E901211AF806009047206A21
:10097000401C761C20624E45F4DB2078C0060AD568
:100980002046FFF743FD06E0D4E9012130209047DF
:10099000206A401C2062381EA7F10107F4DC07E042
:1009A000D4E9012118F805009047206A401C206214
:1009B000281EA5F10105F3DC2046FFF73DFD207858
:1009C000000602D50220BDE8F0870120FBE7116890
:1009D0000268006A530501D508700AE0D30501D505
:1009E000088006E0130603D5C217C1E9000200E043
:1009F00008600120704710B5436913B1AFF3008060
:100A000001E0FFF72AFD012010BD127800F124015A
:100A10000A7000224A700122EDE711684FF0FF32A0
:100A2000E9E70000074B70B50D467B4400F001FD7F
:100A30000446284600F026FD10B14FF0FF3070BD8F
:100A4000204670BD8B1601002DE9FF5F15468A46D2
:100A50000446DFF8AC80F8440027D8E900103E4691
:100A6000CDE9001010E03AF816106A4602A800F02E
:100A70000DFD411C07D02178890603D5E26939189C
:100A800091420DD80744761C2078800602D5E06993
:100A9000B84205DDAE42E6DB3AF816000028E2D1A6
:100AA000A069C01BA0612046FFF7B0FCD8E9001088
:100AB000CDE90010002017E03AF818106A4602A8A5
:100AC00000F0E4FCB0F1FF3F81460BD000250DF1B2
:100AD000080B05E0D4E901211BF8050090476D1CC7
:100AE0004D45F7D308F10100B0428046E4DB206AAF
:100AF000384420622046FFF79FFCBDE8FF9F0000BE
:100B0000D2C903002DE9F0418046D21D22F0070230
:100B10000025D2E90002F52915A614D0011E72F1B4
:100B2000000106DA0023D0EB030063EB020211A6FA
:100B300008E0D8F800108B0701D50FA602E049079E
:100B400001D50EA601251146002408F1240704E072
:100B500000F098F830323A55641C50EA0102F7D19F
:100B60002B46324621464046BDE8F041FFF7D6BE4F
:100B7000000000002D0000002B00000020000000FD
:100B800030B4002100F1240408E002F00705D20887
:100B9000303542EA4372DB086554491C52EA0305CA
:100BA000F3D10468002310A2250707D5A40600D4BA
:100BB00021B1C46901230DA2641EC46130BCFFF7DA
:100BC000ADBE10B5044621461068FFF79EFE0246F2
:100BD0002046BDE810400023D2E7D21D22F00701D5
:100BE000D1E90023CCE70000000000003000000045
:100BF000F0B40D460188090502D5214C7C4402E081
:100C00001F4C7C440E34002100F1240608E002F061
:100C10000F071209E75D42EA03721B097754491C6A
:100C200052EA0307F3D102780023120704D5702D8E
:100C300006D009B1022311342246F0BCFFF76EBE84
:100C400001231034F8E770B504460D4621461068BC
:100C5000FFF75BFE024629462046BDE870400023B0
:100C6000C6E7D21D22F00703D3E90023C0E70368DB
:100C7000126843F0200303600823C3610023B7E731
:100C800034C8030030B5B0F10A024FEA900E71F19A
:100C900000034EEA817EB0EB0E0061EB91014FEA5A
:100CA000101E4EEA017E10EB0E0041EB11114FEACF
:100CB000102E4EEA016E10EB0E0041EB11214FEAAF
:100CC000104E4EEA014E10EB0E0041EB1141401860
:100CD00041F100014FEAD00040EA41704FEAD101F2
:100CE00010EB80054FEA810444EA907444EB010460
:100CF0006D1944EB0404521BA3414FF0000348BF9D
:100D00000A3200D530BD401C41F1000130BD7047B2
:100D10002DE9FF4F0C461E464FF0FF378BB0D2E94E
:100D20000001DDF860800A908A46C1F30A5505B9D2
:100D30003D46002108464FF00000BAF1000F00F4D4
:100D4000400005DA00EB80004FF4400101EA50005A
:100D50004FEA9059B9F1010F00DDB9460A9850EAFF
:100D60004A000ED044F61050A5F2FF3545432F142B
:100D7000B8F1000F1ED07542291E1EDDC9F1000218
:100D80001CE0B8F1010F4FF0000001D0302103E06A
:100D9000F24305E02154401CB042FBDB3046002208
:100DA000002121540B99C1F80880C1E900200FB03F
:100DB000BDE8F08FBD1B6D1CDEE74A4600DA6942D4
:100DC00006A800F0F5FB06AB93E8070003AB83E849
:100DD000070050460A9900F06BFC8DE80700A0F56B
:100DE00000501F3800900398002D0ADD42F21F01C9
:100DF0004A460844002303A90390684600F0D4FE45
:100E000009E0A0F500504A461F38002303A90390CB
:100E1000684600F0DEFE8DE807000004000C03D0F9
:100E20004FF0FF30410800E01046B8F1000F03D04A
:100E30000022009215461EE0751E05D4FFF722FF22
:100E4000303262556D1EF9D5B3460122084302D0F7
:100E500000227F1C04E02078302801D100227F1E70
:100E6000002A099784D01DE0112D07DAFFF70AFF49
:100E7000303262556D1C50EA0102F5D1084302D0B0
:100E80000098C8B10EE00021681E05E0235C625C9A
:100E900063542254401E491C8142F7DBAB46A81B19
:100EA000401E0990002004F80B000B98099AC0F826
:100EB0000880C0E9002B7AE711264FF0000857E7B9
:100EC0002DE9F04F88460446D21D22F0070191B06B
:100ED000D1E90001CDE90A0102F034FC02460B9889
:100EE000C00F01D02D2007E02068810701D52B20FD
:100EF00002E0202101EAC000032A099001D0072A5C
:100F000005DB03464146204600F012FB0BE120784A
:100F1000800601D5E06900E00620B8F1650F814642
:100F200006D0B8F1660F18D0B8F1670F70D131E074
:100F30000020B9F1110F009001DB112301E009F14C
:100F400001030AAA01A90CA8FFF7E2FEDDE90C7073
:100F5000002609F10105834647E001204B46009039
:100F60004FF000470AAA01A90CA8FFF7D1FEDDE95E
:100F70000DB00C995D46002610B909F101000D185D
:100F8000B9EB050003D4C0F1FF3609F10105A5EB6B
:100F900009002BE0B9F1010F01DA4FF0010900203F
:100FA000B9F1110F0090484601DD112300E003461E
:100FB0000AAA01A90CA8FFF7ABFEDDE90C704D46AB
:100FC00000268346207800070AD4AB4500DA5D4648
:100FD00001A8012D04DD411911F8011C302907D0A9
:100FE0004F4502DA17F1040F04DA012082460FE0C0
:100FF0006D1EEEE7002F02DCED1B3E4403E0781C83
:10100000A84200DD7D1CB81B00F1010A4FF000472B
:101010002078000703D4AA4501DB4FF0FF3A0021F6
:10102000B7F1004F0DF143088DF8431024D0022092
:101030002B23002F01DA7F422D230A21021EA0F16B
:10104000010000DC5FB197FBF1FC97FBF1F201FBC3
:101050001C7C17460CF1300C08F801CDEEE7A8F126
:10106000010003702188090501D5452100E06521B3
:10107000A0F1010800F8011C09980FA9A1EB0807CD
:10108000FF1D00B10120411901EBEA70A16938444C
:10109000081A401EA0612078C00602D42046FFF73F
:1010A000B5F9099828B1D4E901219047206A401C7C
:1010B00020622078C00622D52046FFF7A7F91EE05F
:1010C000002E04DBB34502DD01A8805D00E0302086
:1010D000D4E901219047206A401C2062761CAAF1C5
:1010E00001005FEA000A0AD100F01EFAC068016838
:1010F000405CD4E901219047206A401C2062281EF0
:10110000A5F10105DCDC07E0D4E9012118F8010BA9
:101110009047206A401C2062381EA7F10107F3DCCB
:101120002046FFF789F9032011B041E62DE9F04F81
:1011300004460D46D21D22F0070089B0D0E9009781
:101140004846394602F0FEFA0246F80F01D02D2338
:1011500007E02068810701D52B2302E0202101EA66
:10116000C0038DF820300BB1012000E00020032ADD
:10117000824601D0072A04DB2946204600F0D8F930
:101180003FE12078800601D40D2500E0E569C7F332
:101190000A560D2D49DA00214FEA175B08464FF039
:1011A0000000002F00F4400007DA00EB80004FF44D
:1011B000400100EBD07001EA60008115012901DDDA
:1011C0004FF0FF3100224FEA850CBCF1180F06D317
:1011D0001346ACF118004FF08052C24003E04FF4C8
:1011E000801323FA0CF30CF10C0CBCF1200F04D388
:1011F000ACF1200C09FA0CF001E007FA0CF0002920
:101200004FF0004801DD18B90FE00ED140450CD376
:1012100019EB02095F4121B9404502D19F4329EAF8
:101220000209BBEB175F00D0761C2088000502D5B1
:101230007B48784402E07A487844193808AA302379
:1012400002F80A30037C0AF10101002E0AF1020AB9
:1012500053546A4602DC4FF0300101E04FF0310197
:101260004FF001088DF8001002D0A6F2FF3603E01F
:1012700059EA470100D06B4E002D02DC21780907A6
:1012800004D54FF002082E218DF80110C44600212C
:101290000BE0C7F303433F01C35C491C6D1E02F81A
:1012A0000830052908F1010801DA002DF1DC0021E0
:1012B0000CE000EB1973491C1B786D1E082902F81D
:1012C00008304FEA091908F1010801DA002DF0DCB5
:1012D00021688B0602D516E0A8F10108E04505DD7E
:1012E00002EB080313F8013C302BF5D0B8F1000FE6
:1012F00009DD02EB080313F8013C2E2B03D109078B
:1013000001D4A8F10108002D05DD3E2102F80810E6
:101310006D1E08F10108407C002E02F8080008F15B
:10132000010804DA2D20764202F8080002E02B20A2
:1013300002F808000A214FF47A70864208F1010889
:101340000BDB96FBF0F3303302F8083096FBF0F33A
:1013500008F1010800FB136601E0642E0CDB642039
:1013600096FBF0F3303302F8083096FBF0F308F107
:10137000010800FB136601E00A2E06DB96FBF1F084
:10138000303002F8080008F1010896FBF1F001FB8B
:101390001060303002F80800A16908F1010808EB7C
:1013A000050202EB0A00081AA0612078C00602D4E8
:1013B0002046FFF72BF8216A08AE01EB0A002062F5
:1013C00004E0D4E9012116F8010B9047BAF1010AB3
:1013D000F7D22078C00602D52046FFF717F86E46F0
:1013E00009E016F8010B3E280FD0D4E901219047FF
:1013F000206A401C2062B8F10108F2D22046FFF7B3
:101400001BF809B00320BDE8F08F206A2844206251
:1014100003E0D4E90121302090476D1EEBD3F8E7BB
:1014200039C2030002FCFFFF01694A1C026108780F
:10143000704700B58FB0CDE9013100210591054914
:101440007944CDE9031011466846FFF76BF80FB0F9
:1014500000BD0000E5FFFFFF10B5436913B1AFF316
:10146000008001E0FFF7F0FA012010BD128800F1C2
:10147000240182840022C2840122EDE711684FF02A
:10148000FF32E9E7007B00F08000704770B5164638
:101490000C46054600F040F8036893F80101012866
:1014A00006D0FF2C0FD8185D68B101202C7070BDDC
:1014B000D3F807013246214603F2071303442846B6
:1014C000BDE8704018474FF0FF3070BD754600F022
:1014D000EBF8AE4605006946534620F00700854606
:1014E00018B020B5FEF7F6FEBDE820404FF000062C
:1014F0004FF000074FF000084FF0000B21F00701FC
:10150000AC46ACE8C009ACE8C009ACE8C009ACE83E
:10151000C0098D467047000010B500F005F8001DA9
:1015200010BD00BF9919030000487047F44800201F
:101530002DE9F0411F46044603260168072A01F4FD
:10154000006004DB08B116A505E016A503E008B1AC
:1015500015A500E015A521F010002060A069C01EAF
:10156000A0610FB1401EA0612046FEF74FFF4FB1B2
:10157000D4E9012138469047206A401C2062C01CF3
:10158000206206E0206AFAE7D4E9012115F8010B90
:101590009047761EF8D22046FEF74EFFBDE8F08158
:1015A0004E414E006E616E00494E4600696E660007
:1015B0002DE9F047814616468AB0354878440DC873
:1015C0008DE80D0032487844801C03AC0DC884E8D7
:1015D0000D0041F69B300844372190FBF1F290FB5F
:1015E000F1F5A5F1800501FB12041B3C02D5644214
:1015F000012000E00020DFF898A080460027FA4490
:10160000AAF1BE0A0EE0E0070AD03246684607EBB0
:10161000470101230AEB810100F0DBFA8DE80700A6
:1016200064107F1C002CEED1194F7F44AE3F19E0AF
:10163000E80715D007EB04100DF1180A90E80E002A
:101640008AE80E00C068F04201D19819089032462D
:10165000012306A903A800F0BCFA03AB83E8070046
:101660006D10641C002DE3D14FF001033246694632
:10167000B8F1000F03A802D000F096FA01E000F0E4
:10168000A8FAC9E90001C9F808200AB0BDE8F08746
:1016900040BF030010B50446AFF300802046BDE80C
:1016A0001040FEF702BE000000487047D4480020FA
:1016B0005FEA400C08BF91F0000F4FEA8C234FEA1D
:1016C000C12243EA51514FEA1C5018BF00F5F040C7
:1016D0004FEA300018BF41F000415FEA6C5C00F057
:1016E0002980BCF1FF3F08BF40F080407047130CD9
:1016F00006BF12044FF0100C4FF0000C130E04BF85
:1017000012020CF1080C130F04BF12010CF1040CAF
:10171000930F04BF92000CF1020CD30F04BF5200D0
:101720000CF1010C11464FF00002A0F11F00A0EBDC
:101730000C00704711F0004F08BF704731F00041B6
:101740003FF4D5AF0B0C06BF09044FF0100C4FF05F
:10175000000C0B0E04BF09020CF1080C0B0F04BFA8
:1017600009010CF1040C8B0F04BF89000CF1020C71
:10177000CB0F04BF49000CF1010CCCF12003A0EB0E
:101780000C0022FA03F302FA0CF241EA030100F121
:101790000100704720F07F4C80EA030023F07F4770
:1017A000ACEB070303F57C5300F0004003F1FF03AB
:1017B0002DE980494FEA154B09B44FEA144325EA55
:1017C0000B4E24EA03480FF2042606EB13274908C0
:1017D0003E785FEA320203FB0667C7F5000707FBA6
:1017E00006F64FEA54374FEAD64606F1020607FBE3
:1017F000066CCCF1005C4FEA1C472CEA074C07FB57
:1018000006F40CFB06F504EB15464FEA961634BFBA
:1018100000204FF000404FEAD13706FB07FC4FEAAB
:101820001C4C0CFB0BF7D21B03FB0CF761EB070105
:101830000CFB0EF7B0EB074072EB17420CFB08F7FE
:1018400034BFA2EB0742B2EB074261EB17414FEA0C
:101850000C444FEA910706FB07FC4FEA1C4C0CFBBB
:101860000BF7B0EBC74072EB573203FB0CF734BFFA
:10187000A2EBC742B2EBC74261EB57310CFB0EF74C
:10188000B0EBC70072EB57720CFB08F734BFA2EB4A
:10189000C702B2EBC70261EB5771039F4FEA816148
:1018A00041EA921104EBCC044FEAD1374FEA82624D
:1018B00006FB07FC42EA90124FEA80604FEA1C4C9C
:1018C0000CFB0BF7D21B03FB0CF761EB07010CFBC6
:1018D0000EF7B0EB074072EB17420CFB08F734BF72
:1018E000A2EB0742B2EB074261EB17414FEA8C557E
:1018F0004FEA910704EB9C2406FB07FC4FEA1C4CC3
:101900000CFB0BF7B0EBC74072EB573203FB0CF745
:1019100034BFA2EBC742B2EBC74261EB57310CFBBD
:101920000EF7B0EBC70072EB57720CFB08F734BF31
:10193000A2EBC702B2EBC70261EB577115EB4C2566
:101940004FEA816141EA92114FEA82624FEAD13750
:1019500042EA901206FB07FC44F100044FEA806063
:101960004FEA1C4C0CFB0BF7D21B03FB0CF761EB93
:1019700007010CFB0EF7B0EB074072EB17420CFBB4
:1019800008F734BFA2EB0742B2EB074261EB174105
:1019900015EB1C154FEA813141EA92414FEA823240
:1019A00042EA90424FEA80304FEA0C7644F100045C
:1019B00048EA03434EEA0B484FF0000EB2EB080C26
:1019C00071EB030724BF624639464EEB0E0E4FF013
:1019D000000B0018524149414BEB0B0BB2EB080CCA
:1019E00071EB03077BF1000B24BF624639464EEBD7
:1019F0000E0E4FF0000B0018524149414BEB0B0B00
:101A0000B2EB080C71EB03077BF1000B24BF6246BD
:101A100039464EEB0E0E51EA020718BF46F001069A
:101A200016EB0E7655F1000254F1000103D5BDE826
:101A30008901BDE80088BDE88901BDE80048B61904
:101A4000524141EB0101A3F10103704780807F7E89
:101A50007D7C7B7A79787776767574737271717024
:101A60006F6E6E6D6C6C6B6A6A69686867666665D6
:101A70006464636362616160605F5F5E5E5D5D5C64
:101A80005C5B5B5A5A5959585857575656555555D5
:101A90005454535352525251515050504F4F4F4E35
:101AA0004E4D4D4D4C4C4C4B4B4B4A4A4A49494983
:101AB00048484847474747464646454545444444C5
:101AC000444343434342424242414141002B9C46EE
:101AD00030D477002BD01CB54FEA370703B44FF052
:101AE00010004FF01001BAF1000F06D0BCF1000F4A
:101AF000DCBF40F0080040F008014FF000000FBCD0
:101B0000BDE810400BF1010BBBF1010F08BF5FEA0C
:101B1000170722BF12F1010211F101014FF000413C
:101B200043F1000300F0004043EA00007047F9D39E
:101B30005708D0E746EA064613F1400F4FEA16462B
:101B40001FDD13F1200FDFBF16430A4600212033AB
:101B50005B42BED0C3F1200746EA064602FA07F709
:101B60004FEA164646EA0706C3F1200722FA03F2B7
:101B700001FA07F721FA03F14FF0000342EA0702E6
:101B8000A7E746EA020646EA06464FEA164646EA4E
:101B90000106BCBF46EA0646360C4FF000034FF084
:101BA00000024FF0000194E72DE9804C9A469346DD
:101BB00070B491E8380007C831EA400C48BF34EAF5
:101BC000430C03D5FFF7E6FDFFF780FFF0BCBDE84F
:101BD000008C2DE9804C9A46934670B491E8380009
:101BE00007C810F0804F08BF13F0804F03D100F0FA
:101BF00005F8FFF76BFFF0BCBDE8008C20F07F47D5
:101C000080EA030023F07F4C07EB0C03A3F57C5321
:101C100000F00040A3F1FE0392F0000F00F0B3804B
:101C200095F0000F00F077802DE901494FEA11404F
:101C30004FEA144621EA004800FB06FC24EA064766
:101C400008FB06F607FB08F800FB07F718EB064849
:101C50004CEB164C4FEA124B18EB07484FEA15466F
:101C60004CEB174022EA0B4E0BFB06FC25EA06471D
:101C70000EFB06F607FB0EFE0BFB07F71EEB064EF0
:101C80004CEB164C4FF000061EEB074E4CEB174B7F
:101C900018EB0B0840F1000018EB0E0B58EB000896
:101CA00040F100008F1A4FF000013CBFC943661B92
:101CB00014BFB5EB040C00213CBFC943F61B4FEA2F
:101CC00017444EEA8E0E27EA04454FEA1C4704FBF0
:101CD00007622CEA074C05FB07F70CFB05F604FB33
:101CE0000CFC16EB074642EB174216EB0C4642EB98
:101CF0001C421BEB060658EB0202414146EA9E06D7
:101D000001D5BDE80189B619524141EB0101A3F1AA
:101D10000103BDE801894FEA14454FEA114724EA5F
:101D2000054621EA074C05FB07F406FB07F70CFB09
:101D300006F105FB0CFC11EB074144EB17444FEA9D
:101D4000124711EB0C4144EB1C4422EA074C05FB03
:101D500007F206FB07F70CFB06F605FB0CFC16EB7F
:101D6000074642EB174216EB0C4642EB1C456A183D
:101D700054F1000148BF7047B619524141EB0101CF
:101D8000A3F10103704795F0000F37D04FEA1142DD
:101D90004FEA144721EA024624EA074C02FB07F106
:101DA00006FB07F70CFB06F402FB0CFC14EB0744E4
:101DB00041EB17414FEA154714EB0C4441EB1C4132
:101DC00025EA074C02FB07F506FB07F70CFB06F6B6
:101DD00002FB0CFC16EB074645EB174516EB0C46D1
:101DE00045EB1C42121951F1000148BF7047B6196A
:101DF000524141EB0101A3F1010370474FEA144541
:101E00004FEA114724EA054621EA074C05FB07F192
:101E100006FB07F70CFB06F24FF0000605FB0CFC77
:101E200012EB074241EB174112EB0C4251EB1C4104
:101E300048BF7047921841EB0101A3F101037047BD
:101E400000BFFEE710B50848084908604FF4E130CC
:101E50004860002105488160C160016181610C21F9
:101E6000416100F0BFFD10BD003801404C1500205D
:101E70007047704731B500F0ADF90546009C601C15
:101E800000B1641C00BF00F0A5F9401BA042FAD3CA
:101E900038BD00002DE9F847024600240020002547
:101EA0008446002700237BE14FF0010808FA03F481
:101EB000D1F8008008EA0400A0427DD1DFF8ECA24E
:101EC000D1F80480A8EB0A09D0453AD014DCB8F167
:101ED000030F50D009DCB8F1000F31D0B8F1010F79
:101EE0001CD0B8F1020F49D120E0B8F1110F18D081
:101EF000B8F1120F42D11EE0B9F5881F25D006DCDB
:101F0000B9F5803F20D0B9F5801F37D11AE0B9F577
:101F1000001F18D0B9F5041F30D117E0D1F80CC05C
:101F20002DE0D1F80C8008F1040C28E0D1F80C80E9
:101F300008F1080C23E0D1F80C8008F10C0C1EE02D
:101F400000BF00BF00BF00BF00BF00BFD1F80880C6
:101F5000B8F1000F02D14FF0040C0BE0D1F808806B
:101F6000B8F1010F03D14FF0080C146102E04FF0FB
:101F7000080C546103E04FF0000C00E000BF00BF0C
:101F8000FF2801D8904601E002F104084646FF28E8
:101F900002D84FEA830803E0A3F108084FEA880853
:101FA0004746D6F800804FF00F0909FA07F928EAEA
:101FB00009080CFA07F900E07AE048EA0908C6F8CF
:101FC0000080D1F8048008F08058B8F1805F6FD1AC
:101FD00000BFDFF8DC81D8F8188048F00108DFF88E
:101FE000D091C9F81880C846D8F8188008F00108C0
:101FF000CDF8008000BF00BF4FEAB9384FEA93091F
:1020000058F829504FEA83784FEA18794FF00F08B3
:1020100008FA09F825EA0805DFF89881424502D157
:102020004FF0000824E0DFF89081424502D14FF0E4
:1020300001081DE0DFF88481424502D14FF002081B
:1020400016E0DFF87C81424502D14FF003080FE033
:10205000DFF87081424502D14FF0040808E0DFF854
:102060006881424502D14FF0050801E04FF00608B3
:102070004FEA83794FEA197908FA09F848EA050521
:10208000DFF848814FEA930948F82950D1F80480D5
:1020900008F48038B8F5803F0BD1DFF83481D8F8E8
:1020A000008048EA0008DFF82891C9F800800AE0BB
:1020B00075E0DFF81C81D8F8008028EA0008DFF816
:1020C0001091C9F80080D1F8048008F40038B8F500
:1020D000003F0ED1DFF8F88008F10408D8F800803E
:1020E00048EA0008DFF8E89009F10409C9F800801F
:1020F0000DE0DFF8DC8008F10408D8F8008028EA59
:102100000008DFF8CC9009F10409C9F80080D1F883
:10211000048008F48018B8F5801F0ED1DFF8B08075
:1021200008F10808D8F8008048EA0008DFF8A09015
:1021300009F10809C9F800800DE0DFF8948008F182
:102140000808D8F8008028EA0008DFF8849009F130
:102150000809C9F80080D1F8048008F40018B8F51F
:10216000001F0ED1DFF8688008F10C08D8F8008055
:1021700048EA0008DFF8589009F10C09C9F8008016
:102180000DE0DFF84C8008F10C08D8F8008028EA50
:102190000008DFF83C9009F10C09C9F800805B1CCD
:1021A000102BFFF481AEBDE8F8870000000011108D
:1021B0000010024000080140000C014000100140E6
:1021C0000014014000180140001C014008000140BB
:1021D000000401400148006870470000040000202E
:1021E00002480068401C0149086070470400002054
:1021F00010B50848006840F0100006490860032048
:1022000000F05EF80F2000F007F800F019F8002049
:1022100010BD00000020024070B504460748006869
:102220004FF47A71B0FBF1F5284600F0C1FB0022B3
:102230002146501E00F005F8002070BD000000206F
:1022400070472DE9F05F80460D461646002701F0E5
:10225000F1F8074639462A46334601F00700C0F137
:10226000070ABAF1040F02D94FF0040A01E0C0F1E5
:10227000070AD14600F1040ABAF1070F02D24FF063
:10228000000A01E0A0F1030AD4464FF0010A0AFA5D
:1022900009FAAAF1010A0AEA020A0AFA0CFA4FF04C
:1022A000010B0BFA0CFBABF1010B0BEA030B4AEA37
:1022B0000B042146404601F0C5F8BDE8F09F000040
:1022C00000BF00F00702064B19684FF6FF031940E4
:1022D000044B0B4343EA0221014B196000BF7047D6
:1022E0000CED00E00000FA0570B504460D4600262E
:1022F0006248006800F00700A8420ED25F480068FC
:1023000020F0070028435D4908600846006800F097
:102310000700A84201D0012070BD207800F0020023
:10232000022807D15648406820F0F000A168084311
:1023300053494860207800F0010000285DD06068B3
:10234000012806D14E48006800F4003090B9012001
:10235000E2E76068022806D14948006800F0007092
:1023600040B90120D8E74648006800F0020008B9EB
:102370000120D1E74248406820F00300616808432B
:102380003F494860FFF726FF06466068012810D1E4
:1023900008E0FFF71FFF801B41F28831884201D916
:1023A0000320B9E73648406800F00C000428F0D15B
:1023B00023E06068022810D108E0FFF70BFF801BC4
:1023C00041F28831884201D90320A5E72C484068B2
:1023D00000F00C000828F0D10FE008E0FFF7FAFE4B
:1023E000801B41F28831884201D9032094E72448B8
:1023F000406800F00C000028F0D12048006800F090
:102400000700A8420ED91D48006820F007002843A5
:102410001A4908600846006800F00700A84201D089
:10242000012079E7207800F00400042807D114483F
:10243000406820F4E060E168084311494860207872
:1024400000F00800082808D10D48406820F46050CA
:10245000216940EAC1000A49486000F03DF8084996
:102460004968C1F30311074A515CC8400649086036
:102470000F20FFF7D1FE00204EE7000000200240B1
:1024800000100240F02E0308000000200148006800
:10249000704700000000002000B5FFF7F7FF044977
:1024A0004968C1F30221034A515CC84000BD0000E5
:1024B00000100240002F030800B5FFF7E7FF0449B2
:1024C0004968C1F3C221034A515CC84000BD000005
:1024D00000100240002F0308F0B585B00FF2700C19
:1024E0009CE8E01001A8A0E8E0101DA52D6800956B
:1024F000002100240022002300201A4D696801F009
:102500000C05FDB1042D02D0082D1AD101E01648AA
:102510001AE001ADC1F38346AB5D01F480355DB1D6
:10252000104D6D68C5F340451DF805400E4DB5FBD7
:10253000F4F505FB03F202E00C4D03FB05F2104637
:1025400002E000BF084800BF00BF05B0F0BD0000BA
:1025500002030405060708090A0B0C0D0E0F1010E4
:10256000010200000010024000127A0000093D0044
:10257000F8B504460025207800F00100002878D046
:10258000F848406800F00C0004280CD0F54840687A
:1025900000F00C00082811D1F248406800F48030A7
:1025A000B0F5803F0AD1EF48006800F40030002801
:1025B0005FD0606800285CD10120F8BD00BF606872
:1025C000B0F5803F06D1E748006840F48030E54927
:1025D000086028E0606858B9E248006820F480305C
:1025E000E04908600846006820F4802008601AE08E
:1025F0006068B0F5A02F0BD1DA48006840F4802065
:10260000D84908600846006840F4803008600AE055
:10261000D448006820F48030D24908600846006839
:1026200020F48020086000BF606888B1FFF7D2FD09
:10263000054606E0FFF7CEFD401B642801D90320C4
:10264000BBE7C848006800F400300028F2D010E072
:10265000FFF7C0FD054606E0FFF7BCFD401B642800
:1026600001D90320A9E7BF48006800F40030002822
:10267000F2D1207800F00200022857D1B948406812
:1026800000F00C0050B1B748406800F00C0008287A
:1026900018D1B448406800F4803098B9B148006857
:1026A00000F0020020B12069012801D0012084E758
:1026B000AC48006820F0F800616940EAC100A9490F
:1026C000086033E02069E8B10120A7490860FFF7FE
:1026D00081FD054606E0FFF77DFD401B022801D97C
:1026E00003206AE79F48006800F002000028F2D04B
:1026F0009C48006820F0F800616940EAC1009949EF
:10270000086013E0002098490860FFF763FD054664
:1027100006E0FFF75FFD401B022801D903204CE7CC
:102720009048006800F002000028F2D1207800F004
:10273000080008282DD1A069B8B101208B49086094
:10274000FFF748FD054606E0FFF744FD401B022861
:1027500001D9032031E78348406A00F002000028D5
:10276000F2D0012000F084FE13E000207F490860D1
:10277000FFF730FD054606E0FFF72CFD401B022861
:1027800001D9032019E77748406A00F002000028C9
:10279000F2D1207800F00400042873D1002671489B
:1027A000C06900F0805070B900BF6E48C06940F049
:1027B00080506C49C8610846C06900F080500090A4
:1027C00000BF00BF01266A48006800F48070B0B9FD
:1027D0006748006840F4807065490860FFF7FAFCBC
:1027E000054606E0FFF7F6FC401B642801D90320EC
:1027F000E3E65F48006800F480700028F2D000BF74
:10280000E068012806D15748006A40F001005549A8
:10281000086227E0E06858B95248006A20F00100D9
:10282000504908620846006A20F00400086219E076
:10283000E06805280BD14B48006A40F00400494984
:1028400008620846006A40F0010008620AE0454854
:10285000006A20F00100434908620846006A20F03F
:102860000400086200BFE068A0B1FFF7B3FC0546B2
:1028700009E0FFF7AFFC401B41F28831884202D9E2
:1028800003209AE622E03748006A00F002000028A0
:10289000EFD012E0FFF79EFC054608E0FFF79AFC38
:1028A000401B41F28831884201D9032085E62D483A
:1028B000006A00F002000028F0D1012E05D129485D
:1028C000C06920F080502749C86100BFE069C8B3E3
:1028D0002448406800F00C00082860D0E069022815
:1028E00048D1002020490866FFF774FC054606E041
:1028F000FFF770FC401B022801D903205DE6194850
:10290000006800F000700028F2D1206AB0F5803F26
:1029100007D11448406820F40030A16808431149E9
:102920004860D4E9080108430E49496821F474114C
:1029300008430C49486001200B490866FFF74AFC30
:10294000054607E02DE0FFF745FC401B022801D9B2
:10295000032032E60348006800F000700028F2D03F
:102960001FE000000010024000004242800442428A
:102970000070004000200C490866FFF72BFC05465C
:1029800006E0FFF727FC401B022801D9032014E6CC
:102990000648006800F000700028F2D101E0012034
:1029A0000BE6002009E60000000042420010024051
:1029B00070B504462546681EB0F1807F01D3012022
:1029C0000FE0681E4FF0E02148610F214FF0FF300B
:1029D00000F038FD00204FF0E021886107200861F9
:1029E000002070BD10B504460CB9012010BDA069CF
:1029F00000B100E000BF94F8390028B9002084F845
:102A00003800204600F028F8242084F83900206897
:102A1000C06820F400502168C860204600F076FDB0
:102A20002068006920F490402168086120684069AE
:102A300020F02A00216848612068C06840F40050F6
:102A40002168C8600020E063202084F8390084F801
:102A50003A000020CAE7000010B586B0044600BF67
:102A60001E48806940F480401C498861084680699E
:102A700000F48040019000BF00BF00BF084680699D
:102A800040F0040088610846806900F0040001906D
:102A900000BF00BF00BF0846806940F004008861A5
:102AA0000846806900F00400019000BF00BF48158F
:102AB000029002200390012004900320059002A9B7
:102AC0000748FFF7E7F94FF4806002900020039079
:102AD00002A90348FFF7DEF906B010BD001002405E
:102AE000000801402DE9F84304460D4616461F46EE
:102AF0004FF0000994F8390020285CD105B116B9CF
:102B00000120BDE8F88300BF94F83800012801D106
:102B10000220F6E7012084F8380000BF0020E063BF
:102B2000212084F83900FFF755FB8146A684E6840E
:102B30002BE0E08C401EE084A068B0F5805F16D1E9
:102B40004B46002280212046009700F0C3FD08B1CB
:102B50000320D6E7A846B8F80000C0F308002168B3
:102B60004860206908B9AD1C0FE06D1C0DE04B46B4
:102B7000002280212046009700F0ACFD08B1032020
:102B8000BFE715F8010B21684860E08C0028D0D120
:102B90004B46002240212046009700F09BFD08B1E3
:102BA0000320AEE7202084F8390000BF002084F81D
:102BB000380000BFA5E70220A3E700BFFEE7000042
:102BC00020B14FF48021034A116002E00421014A40
:102BD000116070471014014001B502E00098401EDA
:102BE000009000980028F9D108BD000000B585B01C
:102BF00000BF3648806940F01000344988610846BB
:102C0000806900F01000009000BF00BF00BF0846C0
:102C1000806940F0200088610846806900F020004B
:102C2000009000BF00BF00BF0846806940F0080068
:102C300088610846806900F00800009000BF00BF6E
:102C400000BF0846806940F001008861084680693D
:102C500000F00100009000BF00BF00BF1C484068AA
:102C600020F0E0601A4948600846406840F0007073
:102C7000486000BF012002900390032004904FF6AB
:102C8000FF70019001A91348FFF704F9202001907B
:102C900001A91148FFF7FEF84020019001A90E4854
:102CA000FFF7F8F81020019001A90B48FFF7F2F8A0
:102CB0008020019001A90848FFF7ECF8042001905A
:102CC00001A90648FFF7E6F805B000BD0010024074
:102CD00000000140000C01400010014000140140C0
:102CE00010B50446072C00DD10BD314804702046A5
:102CF00004EBD0714910A4EB410139B9F0202D4902
:102D000008804FF4A0702C49088006E04FF4A070B2
:102D100028490880F02028490880362000F05EFB12
:102D20002648008849F24131884205D1082141EA0C
:102D3000441000F067FB0AE02048008848F2525136
:102D4000884204D1002141EA441000F05BFB2A20B4
:102D500000F044FB002000F055FB002000F052FB87
:102D600014490988491EC1F3072000F04BFB1149A3
:102D70000978491EC8B200F045FB2B2000F02EFB5D
:102D8000002000F03FFB002000F03CFB0A490988CE
:102D9000491EC1F3072000F035FB07490978491E99
:102DA000C8B200F02FFB2C2000F018FB00BF9BE7FF
:102DB000100000200C0000200E0000201200002057
:102DC00010B5FFF713FF0120FFF7FAFE00F008F837
:102DD00002480078FFF784FF10BD000010000020BB
:102DE00010B500F09DFAFE4908800846008849F2B7
:102DF000413188427ED14FF6FF70FFF7EDFECF20C4
:102E000000F0ECFA002000F0FDFA812000F0FAFA60
:102E1000302000F0F7FA4FF6FF70FFF7DDFEED20EF
:102E200000F0DCFA642000F0EDFA032000F0EAFA8A
:102E3000122000F0E7FA812000F0E4FA4FF6FF706C
:102E4000FFF7CAFEE82000F0C9FA852000F0DAFAA0
:102E5000102000F0D7FA782000F0D4FA4FF6FF7077
:102E6000FFF7BAFECB2000F0B9FA392000F0CAFA19
:102E70002C2000F0C7FA002000F0C4FA342000F043
:102E8000C1FA032000F0BEFA4FF6FF70FFF7A4FE70
:102E9000F72000F0A3FA202000F0B4FA4FF6FF70FC
:102EA000FFF79AFEEA2000F099FA002000F0AAFA53
:102EB000002000F0A7FA4FF6FF70FFF78DFEB1205B
:102EC00000F08CFA002000F09DFA1B2000F09AFA26
:102ED0004FF6FF70FFF780FEB62000F07FFA0A2061
:102EE00000F090FAA22000F08DFA4FF6FF70FFF785
:102EF00073FE00E0D6E0C02000F070FA352000F04C
:102F000081FA4FF6FF70FFF767FEC12000F066FA06
:102F1000112000F077FAC52000F060FA452000F09B
:102F200071FA452000F06EFAC72000F057FAA2208F
:102F300000F068FAF22000F051FA002000F062FA86
:102F4000262000F04BFA012000F05CFA4FF6FF70EB
:102F5000FFF742FEE02000F041FA0F2000F052FAA5
:102F6000262000F04FFA242000F04CFA0B2000F04D
:102F700049FA0E2000F046FA092000F043FA5420E6
:102F800000F040FAA82000F03DFA462000F03AFA9E
:102F90000C2000F037FA172000F034FA092000F076
:102FA00031FA0F2000F02EFA072000F02BFA002053
:102FB00000F028FAE12000F011FA002000F022FAD7
:102FC000192000F01FFA1B2000F01CFA042000F06A
:102FD00019FA102000F016FA072000F013FA2A2040
:102FE00000F010FA472000F00DFA392000F00AFA3C
:102FF000032000F007FA062000F004FA062000F093
:1030000001FA302000F0FEF9382000F0FBF90F2023
:1030100000F0F8F94FF6FF70FFF7DEFD362000F004
:10302000DDF9C82000F0EEF94FF6FF70FFF7D4FD90
:103030002A2000F0D3F9002000F0E4F9002000F08D
:10304000E1F9002000F0DEF9EF2000F0DBF94FF6A7
:10305000FF70FFF7C1FD2B2000F0C0F9002000F049
:10306000D1F9002000F0CEF9012000F0CBF93F208B
:1030700000F0C8F94FF6FF70FFF7AEFD3A2000F000
:10308000ADF9552000F0BEF9112000F0A7F9554820
:10309000FFF7A2FD4FF6FF70FFF79EFD292000F01D
:1030A0009DF939E14E48008848F252518842F8D1E2
:1030B0004FF6FF70FFF790FDCF2000F08FF9002052
:1030C00000F0A0F9C12000F09DF9302000F09AF93D
:1030D0004FF6FF70FFF780FDED2000F07FF96420D0
:1030E00000F090F9032000F08DF9122000F08AF929
:1030F000812000F087F94FF6FF70FFF76DFDE820A3
:1031000000F06CF9852000F07DF9102000F07AF9CC
:10311000782000F077F94FF6FF70FFF75DFDCB20C8
:1031200000F05CF9392000F06DF92C2000F06AF90C
:10313000002000F067F9342000F064F9022000F06C
:1031400061F94FF6FF70FFF747FDF72000F046F9F1
:10315000202000F057F94FF6FF70FFF73DFDEA2001
:1031600000F03CF9002000F04DF9002000F04AF991
:103170004FF6FF70FFF730FDC02000F02FF921203F
:1031800000F040F94FF6FF70FFF726FDC12000F078
:1031900025F9112000F036F9C52000F01FF92D2087
:1031A00000F030F9332000F02DF94FF6FF70FFF7F3
:1031B00013FD362000F012F9002000F023F94FF63D
:1031C000FF70FFF709FD3A2000F008F9552000F0E4
:1031D00019F94FF6FF70FFF7FFFCB12004E0000083
:1031E00012000020FCBF020000F0F8F8002000F000
:1031F00009F9172000F006F94FF6FF70FFF7ECFC15
:10320000B62000F0EBF80A2000F0FCF8A22000F055
:10321000F9F8F62000F0E2F8012000F0F3F8302091
:1032200000F0F0F8F22000F0D9F8002000F0EAF801
:10323000262000F0D3F8012000F0E4F84FF6FF70EC
:10324000FFF7CAFCE02000F0C9F8D02000F0DAF85F
:10325000002000F0D7F8022000F0D4F8072000F09A
:10326000D1F80B2000F0CEF81A2000F0CBF8312076
:1032700000F0C8F8542000F0C5F8402000F0C2F873
:10328000292000F0BFF8122000F0BCF8122000F056
:10329000B9F8122000F0B6F8172000F0B3F8E120DA
:1032A00000F09CF8D02000F0ADF8002000F0AAF863
:1032B000022000F0A7F8072000F0A4F8052000F095
:1032C000A1F8252000F09EF82D2000F09BF8442066
:1032D00000F098F8452000F095F81C2000F092F8D6
:1032E000182000F08FF8162000F08CF81C2000F059
:1032F00089F81D2000F086F8112000F06FF80748CB
:10330000FFF76AFC4FF6FF70FFF766FC292000F01C
:1033100065F82C2000F062F810BD0000FCBF020030
:1033200010B50024042000F059F800F02BF800F04C
:1033300029F800F027F804464FF6FF7000EA04244D
:1033400000F020F8044348F25250844201D1204654
:1033500010BDD32000F042F800F014F800F012F88D
:1033600000F010F804464FF6FF7000EA042400F065
:1033700009F8044349F24130844201D12046E7E78D
:103380000020E5E74FF08831124A1160121D1160EC
:103390000021104A0C32116080210F4A1161402136
:1033A000116110215161202151610A4908310968D8
:1033B00088B220211161102111614FF03331054A8B
:1033C0001160121D11604FF6FF71024A0C3211603C
:1033D00070470000000C0140001001401021074A16
:1033E000516180215161202111610549086040210E
:1033F00051611161102111617047000000100140FE
:103400000C0C01401021074A5161802111612021DB
:10341000116105490860402151611161102111615C
:1034200070470000001001400C0C014000BFFEE797
:103430007047000002480068C0F302207047000097
:103440000CED00E010B5002807DA0A07140E054A53
:1034500000F00F031B1FD45403E00A07130E024AA7
:10346000135410BD18ED00E000E400E070470000C8
:1034700008B508490968C9084FF47A72B1FBF2F13E
:103480004143009100BF00BF00994A1E00920029ED
:10349000F9D108BD00000020704710B5FEF7A0FE6E
:1034A000012028F0F3FE10BD00B58FB014210AA84A
:1034B000FDF7B6F928216846FDF7B2F90120009022
:1034C000000401900020029002200790C10308919F
:1034D0004FF4E01109916846FFF74AF808B100BFC0
:1034E000FEE70F200A9002200B9000200C900E9017
:1034F0004FF480600D9002210AA8FEF7F5FE08B196
:1035000000BFFEE70FB000BD704700002DE9F0419D
:10351000044600252068006920F44050E168084313
:10352000216808612169A06808436169084305436F
:103530002068C06841F20C61884328432168C86054
:103540002068406920F44070A169084321684861FF
:103550005F49206888425CD1FEF7AEFF00EBC001F6
:1035600001EB001061688900B0FBF1F6FEF7A4FFE3
:1035700000EBC00101EB001061688900B0FBF1F0C5
:103580006421B0FBF1F000EBC00101EB0010A6EBF1
:103590008000322101EB00106421B0FBF1F000F05B
:1035A000F006FEF789FF00EBC00101EB0010616837
:1035B0008900B0FBF1F06421B0FBF1F006EB0016DE
:1035C000FEF77AFF00EBC00101EB00106168890093
:1035D000B0FBF1F7FEF770FF00EBC00101EB00104C
:1035E00061688900B0FBF1F06421B0FBF1F000EB01
:1035F000C00101EB0010A7EB8000322101EB0010AD
:103600006421B0FBF1F000F00F00304421688860C5
:103610005BE0FEF741FF00EBC00101EB00106168C9
:103620008900B0FBF1F6FEF737FF00EBC00101EBBC
:10363000001061688900B0FBF1F06421B0FBF1F08B
:1036400000EBC00101EB0010A6EB8000322101EB82
:1036500000106421B0FBF1F000F0F006FEF71CFF53
:1036600000EBC00101EB001061688900B0FBF1F0D4
:103670006421B0FBF1F006EB0016FEF70DFF00EB46
:10368000C00101EB001061688900B0FBF1F7FEF7A3
:1036900003FF00EBC00101EB001061688900B0FB83
:1036A000F1F06421B0FBF1F000EBC00101EB001080
:1036B000A7EB8000322101EB00106421B0FBF1F098
:1036C00000F00F00304421688860BDE8F081000000
:1036D000003801402DE9F04104460D461746984652
:1036E000069E21E0701CF8B12EB1FEF773FDA0EB31
:1036F0000800B04218D92068C06820F4D070216852
:10370000C8602068406920F00100216848612020DD
:1037100084F8390084F83A0000BF002084F83800AB
:1037200000BF0320BDE8F081206800682840A8425F
:1037300001D1012000E00020B842D3D00020F1E701
:1037400000BFFEE7490050EAC12018BF04204A0D1F
:1037500018BF40F0010040F2FF72B2EB515F08BFAA
:1037600040F00200012808BF0520704770B50446EC
:10377000002508E02168481C20600878303805EBF7
:10378000850100EB41052168087800F004F8002865
:10379000F0D1284670BD0146302903DB392901DC10
:1037A000012070470020FCE730380A2801D20120B0
:1037B000704700207047000010B54021074801F015
:1037C000BAF900221E21064828F0C8FD0549086004
:1037D00002F04AFF00200449087010BDBC1500200B
:1037E00035670008740000207000002030B50346E3
:1037F000B1F90040B2F90050AC4202DDB1F900402D
:1038000001E0B2F900401C80B1F90240B2F9025067
:10381000AC4202DDB1F9024001E0B2F902405C8045
:10382000B1F90440B2F90450AC4202DAB1F90440F3
:1038300001E0B2F904409C80B1F90640B2F90650AB
:10384000AC4202DAB1F9064001E0B2F90640DC8090
:103850000120B3F90040B3F90450AC4205DCB3F9E0
:103860000240B3F90650AC4200DD002030BDF8B58F
:1038700004460D4616460027B4F90000B5F90010BD
:10388000884212DBB4F90200B5F9021088420CDB61
:10389000B4F90400B5F90410884206DCB4F9060056
:1038A000B5F90610884200DC01270FB90020F8BDE9
:1038B0000EB90120FBE72088ADF800006088ADF864
:1038C000020032466946284600F0A7F808B90020F1
:1038D000EDE7A088ADF800006088ADF80200324640
:1038E0006946284600F099F808B90020DFE72088EB
:1038F000ADF80000E088ADF802003246694628467F
:1039000000F08BF808B90020D1E7A088ADF80000DE
:10391000E088ADF8020032466946284600F07DF89E
:1039200008B90020C3E70120C1E70246B2F9000050
:10393000B1F90430984213DCB2F90400B1F9003057
:1039400098420DDBB2F90200B1F90630984207DC6B
:10395000B2F90600B1F90230984201DB012070474C
:103960000020FCE7F8B504460D461646B4F90400FD
:10397000B5F90010884211DBB4F90600B5F9021060
:1039800088420BDBB4F90000B5F90410884205DC6D
:10399000B4F90200B5F90610884201DD0120F8BD36
:1039A0000EB90020FBE72088ADF800006088ADF874
:1039B000020032466946284600F02FF808B1002080
:1039C000EDE7A088ADF800006088ADF8020032464F
:1039D0006946284600F021F808B10020DFE720887A
:1039E000ADF80000E088ADF802003246694628468E
:1039F00000F013F808B10020D1E7A088ADF800006E
:103A0000E088ADF8020032466946284600F005F825
:103A100008B10020C3E70120C1E72DE9FC5F05469E
:103A20000E4614464FF0000AB6F90000B5F9001032
:103A3000884213DBB6F90000B5F9041088420DDCAA
:103A4000B6F90200B5F90210884207DBB6F90200A8
:103A5000B5F90610884201DC4FF0010ABAF1000FF7
:103A600002D10020BDE8FC9F002C01DC0120F9E719
:103A7000284612F036F8834600EBDB7047102846E4
:103A800011F0B5FF834600EBDB704FEA6008474555
:103A900001DA384600E0404681464C4500DD4C46A0
:103AA0002888ADF800002888204400B2ADF8040052
:103AB0006888ADF802006888204400B2ADF80600BE
:103AC000002231466846FFF7A8FF80B1BDF8040028
:103AD000204400B2ADF80400BDF80600204400B256
:103AE000ADF806003146684624F0EEFDBAE7E888F6
:103AF000001B00B2ADF80200E888ADF80600002215
:103B000031466846FFF789FF80B1BDF804002044C4
:103B100000B2ADF80400BDF80200001B00B2ADF821
:103B200002003146684624F0CFFD9BE7A888001BC1
:103B300000B2ADF80000A888ADF8040000223146BC
:103B40006846FFF76AFF80B1BDF80000001B00B2B5
:103B5000ADF80000BDF80200001B00B2ADF8020095
:103B60003146684624F0B0FD7CE76888ADF8020075
:103B70006888204400B2ADF806000022314668464D
:103B8000FFF74BFF80B1BDF80000001B00B2ADF89D
:103B90000000BDF80600204400B2ADF80600314632
:103BA000684624F091FD5DE701205BE710B5B1F9AF
:103BB0000030B2F90040A34202DAB1F9003001E06E
:103BC000B2F900300380B1F90230B2F90240A342E9
:103BD00002DAB1F9023001E0B2F902304380B1F902
:103BE0000430B2F90440A34202DDB1F9043001E02F
:103BF000B2F904308380B1F90630B2F90640A3422D
:103C000002DDB1F9063001E0B2F90630C38010BD23
:103C10002DE9FF41044600BF00BF28F027FB054601
:103C20000020039034B14C49E0680860204628F039
:103C300027FD03E015F00CFA47490860464909687A
:103C4000086924F0FDFB44480068406920B14249FE
:103C50000968486924F0F4FB3F490968C86924F001
:103C6000EFFB3D490968086A24F0EAFB3A4800681E
:103C7000006988B9002038490968A1F8500137A0C7
:103C80003D4B4FF499723DA10090022000F0F0FFEF
:103C900000BF00BFBDE8FF8125F000F824F046FF1B
:103CA0002D480068B0F8500100284BD02A48006821
:103CB0000068007CC0F34000E8B12748006815F0B8
:103CC00017FB401E06B22448006815F0D9F9401EC3
:103CD00007B23B460022114601A8009611F070FF82
:103CE00001A81D4909680968896B48601A4800687D
:103CF00006F00CF900BF4FF48071174800683030AF
:103D00001EF019FD20211448006800F598701EF07F
:103D100012FD002010490968A1F85001284628F03A
:103D200097FA03900C4800680068406A50B10A494D
:103D3000096808680849096809684B6A17490A68E8
:103D4000039998471EF054F900F060F800F028F845
:103D500000BF00BF00BF9DE740000020746865728F
:103D600065206973206E6F206163746976652073C6
:103D7000637265656E0000003D3203082E2E5C55AF
:103D80007365725C6C76676C5C7372635C636F7294
:103D9000655C6C765F726566722E63003C00002085
:103DA00010B5002416E0C4EBC4000C4951F8200003
:103DB00030B1C4EBC401094A52F821001EF072FA76
:103DC000C4EBC401054A02EB81001C211EF0B3FCC8
:103DD000601CC4B2042CE6DB10BD00009816002065
:103DE0000146094A10680BE042688A4202D0026824
:103DF0008A4204D1027E22F00102521C02764069FE
:103E00000028F1D170470000140000207047000026
:103E100010B50421014800F08EFE10BDB015002041
:103E200010B51C21014800F086FE10BDC815002009
:103E30002DE9FF4F8BB004469A46199DBAF1000F49
:103E400011D11898B0F5807F0DD1002020806080BE
:103E50000C98401E00B2A0800D98401E00B2E08079
:103E60000FB0BDE8F08FB5F9000040421899484303
:103E70000121C1EB202000B22080B5F902004042B0
:103E8000189948430121C1EB202000B26080B5F9A8
:103E900000100C98401A18994843022101EB202089
:103EA00000B2A080B5F902100D98401A1899484345
:103EB000022101EB202000B2E080BAF1000F14D102
:103EC00020882988084400B22080608869880844D6
:103ED00000B26080A0882988084400B2A080E088F1
:103EE0006988084400B2E080BAE70A209AFBF0F043
:103EF0000A900A98401C09900A9800EB8000AAEBEF
:103F0000400B0A9800B228F06FFE0890099800B2A2
:103F100028F06AFE07900A985A3000B228F064FE32
:103F2000069009985A3000B228F05EFE0590CBF159
:103F30000A0108984143079800FB0B100A2190FBE7
:103F4000F1F6CBF10A0106984143059800FB0B10EE
:103F50000A2190FBF1F776117F11B4F90080B4F9D2
:103F6000029007FB08F006FB1900298801EBA0204E
:103F700000B2ADF8100006FB08F007FB09006988E5
:103F800001EBA02000B2ADF81200B4F90480B4F93E
:103F9000029007FB08F006FB1900298801EBA0201E
:103FA00000B2ADF80C0006FB08F007FB09006988B9
:103FB00001EBA02000B2ADF80E00B4F90080B4F916
:103FC000069007FB08F006FB1900298801EBA020EA
:103FD00000B2ADF8080006FB08F007FB090069888D
:103FE00001EBA02000B2ADF80A00B4F90480B4F9E6
:103FF000069007FB08F006FB1900298801EBA020BA
:1040000000B2ADF8040006FB08F007FB0900698860
:1040100001EBA02000B2ADF80600BDF90800BDF923
:104020001010884202DABDF9080001E0BDF9100065
:10403000BDF90410BDF90C20914202DABDF904105B
:1040400001E0BDF90C1088420BDABDF90800BDF99A
:104050001010884202DABDF908000DE0BDF9100029
:104060000AE0BDF90400BDF90C10884202DABDF97E
:10407000040001E0BDF90C002080BDF90800BDF985
:104080001010884202DDBDF9080001E0BDF9100002
:10409000BDF90410BDF90C20914202DDBDF90410F8
:1040A00001E0BDF90C1088420BDDBDF90800BDF937
:1040B0001010884202DDBDF908000DE0BDF91000C6
:1040C0000AE0BDF90400BDF90C10884202DDBDF91B
:1040D000040001E0BDF90C00A080BDF90A00BDF9A3
:1040E0001210884202DABDF90A0001E0BDF912009F
:1040F000BDF90610BDF90E20914202DABDF9061095
:1041000001E0BDF90E1088420BDABDF90A00BDF9D5
:104110001210884202DABDF90A000DE0BDF9120062
:104120000AE0BDF90600BDF90E10884202DABDF9B9
:10413000060001E0BDF90E006080BDF90A00BDF97E
:104140001210884202DDBDF90A0001E0BDF912003B
:10415000BDF90610BDF90E20914202DDBDF9061031
:1041600001E0BDF90E1088420BDDBDF90A00BDF972
:104170001210884202DDBDF90A000DE0BDF91200FF
:104180000AE0BDF90600BDF90E10884202DDBDF956
:10419000060001E0BDF90E00E08000BF60E62DE9F9
:1041A000F74F86B0044620680590B4F908100798C8
:1041B000A0EB0108B4F90A100898A0EB0109E08906
:1041C000B0F5807F13D1206B00FB08F0E16A01FBA2
:1041D0001901606A00EBA10BE06A00FB08F0216B9B
:1041E00001FB0901A06A00EBA10004902FE0A08967
:1041F00080B9A06B00FB08F04FEA6018A06B00FBD1
:1042000009F04FEA6019606A00EB080BA06A4844A5
:1042100004901CE0A06B00FB08F04FEA6018A06B54
:1042200000FB09F04FEA6019206B00FB08F0E16A1F
:1042300001FB1901606A00EBA12BE06A00FB08F0AA
:10424000216B01FB0901A06A00EBA12004904FEA59
:104250002B2604980712B4F90400B04203DC0020B6
:1042600009B0BDE8F08F002E01DA0020F8E7B4F9BC
:104270000600B84201DC0020F2E7002F01DA00203E
:10428000EEE73420005DC0F3800050B33420005DC1
:10429000C0F3400078B90225B4F9040078436843BC
:1042A00006FB050A059800EB0A012A4604F11400F2
:1042B0001EF0EFF92CE00325B4F9040078436843BD
:1042C00006FB050A6A1E059800EB0A0104F11400BA
:1042D0001EF0DFF90AEB0500401E0599095CA17587
:1042E00016E04FF0000A0025208A03463AB231B2A8
:1042F000019004F118001AF0EFF80290BDF80800E0
:10430000A0823AB231B204F118001AF045F8A07553
:104310003420005D00F00100D0B14FF47F40002157
:10432000420B42EA114100F4E05241EAC20100F0BE
:10433000F80241EA42110191BDF8042011460291B0
:10434000A08ABDF80810884201D1002088E700BF8C
:10435000E07C08B9012083E70FFA8BF1A18704986C
:1043600001B2E18731B24020015339B242200153FA
:10437000C4F844A084F84850204600F003F80390A5
:1043800003986DE72DE9F04F8DB00446D4F8009006
:1043900094F83C000C9094F83E000B900C98702818
:1043A0000BDA4FF0FF35B4F940002844002800DA5A
:1043B00000250C988030C7B213E00C9890280EDDD1
:1043C0000125B4F940002844B4F90410884200DB08
:1043D00000250C98C0F1FF008030C7B201E0002535
:1043E000FF270B9870280CDA4FF0FF36B4F9420023
:1043F0003044002800DA00260B98803000F0FF08D7
:1044000015E00B9890280FDD0126B4F942003044E6
:10441000B4F90610884200DB00260B98C0F1FF00BB
:10442000803000F0FF0802E000264FF0FF08A08A6D
:104430000A90A07D069000200590049003903420FF
:10444000005DC0F3800000285BD094F84800626CE7
:1044500000FB052000EB0901022209A81EF019F952
:10446000B4F9040094F848205043626C00FB062025
:1044700000EB0901022208A81EF00BF9B4F90400B0
:1044800094F848205043626C00FB062294F84800E0
:1044900000FB052000EB0901022207A81EF0F9F835
:1044A0003420005DC0F3400000287ED094F848001E
:1044B000616C00FB05110844401E19F800000590CE
:1044C000B4F9040094F848104843616C00FB0611ED
:1044D00094F848000844401E19F800000490B4F90C
:1044E000040094F848104843616C00FB061194F8EE
:1044F000480000FB05110844401E19F80000039015
:1045000053E0208A0090B4F942204020005B284408
:1045100001B204F11800009B19F0DEFF0990208A17
:1045200000904220005B304402B2B4F9401004F124
:104530001800009B19F0D0FF0890208A00904220BC
:10454000005B304402B24020005B284401B204F119
:104550001800009B19F0C0FF07903420005DC0F3E5
:10456000400010B3B4F942204020005B284401B25F
:1045700004F1180019F010FF05904220005B304450
:1045800002B2B4F9401004F1180019F005FF0490CC
:104590004220005B304402B24020005B284401B25C
:1045A00004F1180019F0F8FE0390BA46BB46342017
:1045B000005DC0F34000E0B306987843C7F1FF0CFC
:1045C000059B03FB0C00C0F3072104987843C7F157
:1045D000FF0C039B03FB0C00C0F3072201FB08F058
:1045E000C8F1FF0302FB0300030AA375022905DCDF
:1045F000022A03DC00200DB0BDE8F08F022901DCA7
:104600004FF00008022A01DC4FF0FF08069802284C
:1046100001DC4FF0000A0598022801DC4FF0FF0A88
:104620000498022801DC4FF0000B0398022803DCF9
:1046300000E002E04FF0FF0B03E0BA46BB46FF216B
:10464000A175BAF1000F02D1099802900BE0BAF1FE
:10465000FF0F02D10A98029005E05246DDE90910E9
:1046600013F06DFC0290BBF1000F02D1079801908E
:104670000BE0BBF1FF0F02D10898019005E05A460C
:10468000DDE9071013F05BFC0190B8F1000F03D1D6
:10469000BDF80400A0820FE0B8F1FF0F03D1BDF810
:1046A0000800A08208E04246DDE9011013F047FC53
:1046B0000090BDF80000A08201209CE72DE9F05F8A
:1046C0000446B4F9080001026162B4F90A0001026B
:1046D000A162B4F90C000A2190FBF1F56F1CB4F94A
:1046E0000C0005EB8501A0EB4106684200B228F002
:1046F0007BFA8046784200B228F076FA8146C5F10E
:104700005A0000B228F070FA8246C7F15A0000B28F
:1047100028F06AFA8346C6F10A0000FB08F009FB9C
:1047200006000A2190FBF1F1E162C6F10A0000FBEC
:104730000AF00BFB06000A2190FBF1F12163E06A0D
:104740004111E162206B41112163A07C19F0DAFF75
:104750003421095D60F3000134200155A07C19F07B
:10476000B4FF3421095D60F3410134200155A07C80
:10477000042805D0A07C052802D0A07C062807D1FB
:104780003420005D20F00400001D3421085505E0B0
:104790003420005D20F0040134200155216821629D
:1047A000A06920F0E000A061A17CA06961F3040091
:1047B000A061A188A06961F39420A061E188A0694B
:1047C00061F35F50A061E08900EBD071491001F501
:1047D000001191FBF0F2A263FF21A175208AA08253
:1047E000BDE8F09F2DE9F74181B00546164600244B
:1047F000164C27F03BFD8046334629462046029A58
:104800001AF02CFE074697B911A01C4B7D221CA163
:104810000090022000F02CFA2C2120461DF08BFF86
:104820004FF00040A062002004B0BDE8F0810020FD
:10483000A062E06918B9404627F00AFDE061E0692E
:1048400008B90120E0612046EEE70000EC150020E9
:10485000496D61676520647261772063616E6E6F78
:1048600074206F70656E2074686520696D6167657E
:10487000207265736F757263650000000D33030865
:104880002E2E5C557365725C6C76676C5C7372631C
:104890005C647261775C6C765F696D675F636163AE
:1048A00068652E63000000003EB51421194800F031
:1048B00042F91AF045FD044600BF002C0DD116A0A8
:1048C00019A11DA2244BCDE900210290402223A171
:1048D000032000F0CDF900BFFEE700BF44B929A0D6
:1048E0001D4B42221DA10090022000F0C1F93EBDE7
:1048F0002D4920461AF0A8FE2C4920461AF0A6FEA3
:104900002B4920461AF0A4FE2A4920461AF09AFEA6
:1049100000BFECE7D41500204F7574206F66206D42
:10492000656D6F72790000006465636F6465722065
:10493000213D204E554C4C00417373657274656483
:104940002061742065787072657373696F6E3A20A8
:104950002573202825732900363303082E2E5C5535
:104960007365725C6C76676C5C7372635C647261B5
:10497000775C6C765F696D675F6465636F646572B1
:104980002E6300006C765F696D675F6465636F64BA
:1049900065725F696E69743A206F7574206F662066
:1049A0006D656D6F72790000EDE70108E5ED0108B6
:1049B000D5F10108B5E701082DE9FF4104460F468E
:1049C00014B914F045FB04460CB9BDE8FF811FB9CA
:1049D0000020A4F85001F8E70020ADF80800ADF879
:1049E0000A00204614F04CFB401E00B2ADF80C004B
:1049F000204614F07DFC401E00B2ADF80E0002AA65
:104A000039466846FEF7F2FE064606B9DDE720683D
:104A1000007CC0F3400060B102982063039860639B
:104A20000120A4F85001606810B1606827F034FEDE
:104A3000CBE72068806918B1206869468269904791
:104A400000250BE004F1300000EBC50100226846B0
:104A5000FEF70DFF00B1B8E7681C85B2B4F850014D
:104A6000A842EFDCB4F85001202809DAB4F850214C
:104A700004F1300101EBC200694610F052FF0BE077
:104A80000020A4F85001B4F8502104F1300101EBEA
:104A9000C20002A910F045FFB4F85001401CA4F870
:104AA0005001606810B1606827F0F6FD00BF8CE728
:104AB00070B50546284600F013F8044600260CE0C1
:104AC0002146284600F024F806462146284600F0F4
:104AD00086F820461DF0E6FB3446002CF0D170BD70
:104AE000014609B9002070474868FCE770B50646E2
:104AF00000243046FFF7F4FF054605E0641C294614
:104B0000304600F005F80546002DF7D1204670BD6F
:104B100002460B461068001D0344186870470246A1
:104B20000B461068034418687047014609B9002015
:104B300070478868FCE7002242608260CA1C22F04D
:104B400003010160704770B50446216801F1080057
:104B50001DF0D2F90546A5B100222946204629F0CC
:104B600085F929462046626829F072F9606820B10B
:104B70002A462046616829F079F96560A06800B985
:104B8000A560284670BD70B50446216801F1080093
:104B90001DF0B2F90546A5B100222946204629F0AC
:104BA00057F929462046A26829F060F9A06820B18B
:104BB0002A462046A16829F04BF9A560606800B933
:104BC0006560284670BD014609B9012070474868F4
:104BD00018B9886808B90120F8E70020F6E72DE940
:104BE000F04104460D460CB9BDE8F0812046FFF7C0
:104BF00077FFA8420FD129462046FFF789FF606062
:104C0000606810B90020A0602FE000222046616893
:104C100029F02CF929E02046FFF787FFA8420FD1A1
:104C200029462046FFF77BFFA060A06810B900204E
:104C300060601AE000222046A16829F009F914E01A
:104C400029462046FFF76BFF064629462046FFF718
:104C50005FFF07463A463146204629F0F9F83246CA
:104C60003946204629F002F900BF00BFBCE700002A
:104C70002DE9FE4F07460D4691469846062F01DB6B
:104C8000BDE8FE8F022F38DB0DA802902846FBF707
:104C900031FD044608E0285D2F2802D0285D5C28FD
:104CA00001D1641C02E0641E002CF4D100BF27F087
:104CB000DDFA06464FF47A70B6FBF0F100FB116A9C
:104CC000B6FBF0FB0E480068301ACDE900080D482D
:104CD00050F8271053465A460BA0FBF78BFB02995E
:104CE0000C98FBF781FB29194A460EA0FBF782FBC3
:104CF000034806600020029000BF00BFC0E700002C
:104D000090000020940000205B25735D0928256435
:104D10002E253033642C202B256429092025733A55
:104D200020000000200928696E202573206C696E20
:104D30006520232564290A0010B504462068806890
:104D400018B120682146826890472068006828B121
:104D50002068006820602046FFF7EEFF10BD014686
:104D6000886818B18868B0F9160070470020FCE721
:104D70002DE9F04F93B005468B4691469A461C9E0E
:104D8000688C20F00400001D6884A5F8209032890A
:104D90005946284621F08AF81290A5F820A03289B9
:104DA0005946284621F082F81190688C20F00400C2
:104DB0006884DDE9111088420CD1DDE911108842C8
:104DC00008D1BDF84800BDF84410884202D113B0A4
:104DD000BDE8F08FA5F8209032895946284621F089
:104DE00065F81290A5F820A0594628460EF0D5FA8D
:104DF00010903189109A1068129A25F079FD308947
:104E0000602833D147F6FF711298884202D011987A
:104E100088422BD1284621F070FA0F9000EBD07019
:104E20004710284621F069FA0F9000EBD0704FEA46
:104E3000600847F6FF711298884208D1781C08F183
:104E40000101884200DA01E008F10100129047F602
:104E5000FF711198884208D1781C08F1010188423D
:104E600000DA01E008F10100119000BF2A48FFF7C5
:104E70006AFE044600BF74B928A02CA12EA2364BAE
:104E8000CDE9002102904FF4A57234A10320FFF771
:104E9000EFFE00BFFEE700BF04B998E71298E0609C
:104EA00011982061ACB325603089A080C4F808B0A7
:104EB00068460FF0B9FE214668460FF068FF314999
:104EC00068460FF034FF3048029000BF2F49684613
:104ED0000FF03BFFFF22002168460FF048FF3188AA
:104EE00068460FF03AFF718868460FF01BFFF068C4
:104EF000069000BF6846002190F83E2061F3000252
:104F000080F83E2000BF3069059068460FF056FFDC
:104F100000BF00BF5BE70000E01500204F75742064
:104F20006F66206D656D6F727900000074722021CC
:104F30003D204E554C4C000041737365727465649E
:104F40002061742065787072657373696F6E3A20A2
:104F50002573202825732900E03103082E2E5C5587
:104F60007365725C6C76676C5C7372635C636F72A2
:104F7000655C6C765F6F626A5F7374796C652E63D3
:104F800000000000F12603084929030879280308D6
:104F900010B514210148FFF7CEFD10BDE01500202B
:104FA0002DE9FE4F04460F4690464FF000090025BC
:104FB0006BE1E06800EBC5004068C0F3406000B101
:104FC00062E1E16801EBC501496821F07F4023F00F
:104FD00034FA064626EA070008B9012000E000205E
:104FE000029026EA080008B9012000E000200190A4
:104FF000DDE90101814272D0E06850F835A04FF040
:10500000000B6A4641F61001504625F0B5F810B184
:105010004FF0010BA9E06A4641F61101504625F018
:10502000ABF810B14FF0010B9FE06A4641F6120158
:10503000504625F0A1F810B14FF0010B95E06A46FB
:1050400041F61301504625F097F810B14FF0010BCF
:105050008BE06A4641F61501504625F08DF810B1F7
:105060004FF0010B81E06A4641F61401504625F0ED
:1050700083F810B14FF0010B77E06A4641F2690105
:10508000504625F079F810B14FF0010B6DE06A46FB
:1050900043F20C01504625F06FF810B14FF0010BB0
:1050A00063E06A4643F20D01504625F065F810B101
:1050B0004FF0010B59E06A4641F20101504625F0DC
:1050C0005BF810B14FF0010B4FE06A4641F204016A
:1050D000504625F051F818B14FF0010B45E0D2E0F1
:1050E0006A4641F20201504625F046F810B14FF0F1
:1050F000010B3AE06A4641F20301504625F03CF8C4
:1051000010B14FF0010B30E06A4641F20501504604
:1051100025F032F810B14FF0010B26E06A4641F25B
:105120000601504625F028F810B14FF0010B1CE0A5
:105130006A4641F23201504625F01EF810B14FF098
:10514000010B12E06A4643F60F01504625F014F8B1
:1051500010B14FF0010B08E06A4643F60E015046CD
:1051600025F00AF808B14FF0010BBBF1000F02D097
:105170000320BDE8FE8F6A4640F60A01504624F03F
:10518000FBFF10B14FF002097CE06A4640F60B01CC
:10519000504624F0F1FF10B14FF0020972E06A4668
:1051A00043F60F01504624F0E7FF10B14FF002091B
:1051B00068E06A4643F60E01504624F0DDFF10B168
:1051C0004FF002095EE06A4640F63C01504624F08A
:1051D000D3FF10B14FF0020954E06A4640F63D019A
:1051E000504624F0C9FF10B14FF002094AE06A4668
:1051F00040F63A01504624F0BFFF10B14FF00209CB
:1052000040E06A464FF40461504624F0B5FF10B107
:105210004FF0020936E06A4640F64501504624F058
:10522000ABFF10B14FF002092CE06A4640F6410195
:10523000504624F0A1FF10B14FF0020922E06A4667
:1052400040F64201504624F097FF10B14FF002099A
:1052500018E06A4640F64301504624F08DFF10B135
:105260004FF002090EE06A4640F64901504624F02C
:1052700083FF10B14FF0020904E0B9F1000F01D132
:105280004FF0010900BF00BF6D1C608CC0F3C5006A
:10529000A8423FF68EAE48466BE700000148006822
:1052A000704700004000002070470146C1F304121F
:1052B000072A00DD0722D0B27047000010B5182180
:1052C0000348FFF738FC012027F0C2F810BD0000AA
:1052D0008C1500202DE9F04105460F4616460DB904
:1052E000BDE8F0812846FBF705FA80463946284696
:1052F0000A4A126890470746E8193146074A126879
:10530000904706463C4603E0A019285C2855641CDB
:10531000A8EB0600A042F7D200BFE1E7DC000020C6
:105320002DE9F04106460C4617461D4629463046F3
:10533000084A126890472060206830B129688819AF
:105340000021044A1268904700E000203860BDE860
:10535000F0810000D40000202DE9F04F87B0044612
:105360000F4692469846DDE910560DB10020288080
:105370001CB9002007B0BDE8F08F207808B90020E4
:10538000F8E70FB90020F5E74FF0000906F002003A
:1053900010B906F0040098B1002000E0401C215C28
:1053A0000A2905D0215C0D2902D0215C0029F5D104
:1053B000215C01B1401C15B14FF0FF312980D9E7C4
:1053C00006F0020008B141F6FF7800200690059033
:1053D00038E000200490059808B9012000E0002082
:1053E00006A904AACDE90062CDE90210059960186A
:1053F00043465246394627F02FFC83460498A8EBD3
:1054000000000FFA80F8049848440FFA80F9BBF1C5
:10541000000F00D11CE005985844059020780A2818
:1054200002D020780D2800D112E00598205C0A28CF
:1054300003D00598205C0D2803D10598401C0590E9
:1054400006E000BF0598205C10B1B8F1000FC0DC89
:1054500000BF059870B905A92046094A126890470F
:10546000834635B100225946384618F0BBF80FFA8A
:1054700080F900BF0DB1A5F8009005987AE700000B
:10548000D40000202DE9F04706468846174606B1AD
:105490000FB9BDE8F0873046FBF72CF98146384656
:1054A000FBF728F9044604B9F3E704EB090A41467F
:1054B00030460B4A126890478046554603E0281B49
:1054C000305C70556D1E08EB0400A842F7D906EB5E
:1054D0000800224639461DF0E8F800BFD9E7000071
:1054E000DC000020024600200FA31B788B4211D164
:1054F00013781BB90123137001200BE01378012BE3
:1055000002D10023137005E01378022B02D100238F
:10551000137001201378012B04D1202901D102231B
:1055200013700120704700002300000073B584B0A1
:10553000064605980390324600210846039B27F053
:10554000DFFE0546002003900024681C1CF0D4FCFC
:10555000044600BF002C0ED10EA012A115A21D4BB7
:10556000CDE9002102904FF4F0721BA10320FFF758
:105570007FFB00BFFEE700BF14B9002006B070BD7E
:10558000002060553246691C2046059B27F0B8FE76
:105590002046F3E74F7574206F66206D656D6F725E
:1055A000790000007465787420213D204E554C4CE4
:1055B000000000004173736572746564206174209B
:1055C00065787072657373696F6E3A202573202851
:1055D00025732900D5C303082E2E5C557365725CB4
:1055E0006C76676C5C7372635C6D6973635C6C761C
:1055F0005F7478742E6300002DE9F04781460E46F3
:1056000014461F46DDF820A035461BE0600800FB6D
:10561000075529464846D047B0F1000809DD04F097
:10562000010080F00100C0EB5404E819054606466D
:1056300008E0B8F1000F02DA6408354602E02846B7
:10564000BDE8F087002CE1D10020F9E72DE9FF4FFC
:1056500085B08346DDE9158ADDE91349DDE9177573
:10566000129E05F00200F8B94FB105F0010030B10B
:10567000B9F1000F02D105F00C0000B17F1E03E06C
:1056800030222046641C3254544501D2202CF7D3DA
:1056900003E030222046641C325405F0010018B1AA
:1056A000BC4201D2202CF4D305F01000B0B305F4B5
:1056B000806050B94CB1544501D0BC4205D1641E44
:1056C0001CB1B8F1100F00D1641EB8F1100F09D150
:1056D00005F0200030B9202C04D278222046641C2A
:1056E000325415E0B8F1100F09D105F0200030B1A7
:1056F000202C04D258222046641C325408E0B8F111
:10570000020F05D1202C03D262222046641C3254A1
:10571000202C03D230222046641C3254202C16D276
:10572000B9F1000F04D02D222046641C32540EE043
:1057300005F0040020B12B222046641C325406E000
:1057400005F0080018B120222046641C3254CDE92F
:105750000275CDE90064584606A90EC900F0A2F80A
:1057600009B0BDE8F08F2DE9FF4F8FB08046DDE92D
:105770001FABDDE91D96219D1C9C00270CB925F06F
:10578000100505F4806000B1E4B100BFB4FBF6F190
:1057900006FB1141C8B20A2802DA00F1300107E025
:1057A00005F0200109B1412100E0612101440A39DD
:1057B000CBB239467F1C07AA5354B4FBF6F40CB1A4
:1057C000202FE3D307A8CDE904AB8DE8810203962F
:1057D0000695404610A90EC9FFF738FF13B0BDE883
:1057E000F08F2DE9FF4F8FB0DDE9217BDDF8908050
:1057F000209EDDE91C454FF00009002184EA0100EC
:105800006940084301D128F0100808F4806028B1ED
:10581000002184EA0100694008432DD000BF3246D0
:105820003B4620462946FAF768FD02F0FF0ABAF126
:105830000A0F02DA0AF1300007E008F0200008B190
:10584000412000E0612050440A38C2B2484609F1C4
:10585000010907A90A5432463B4620462946FAF771
:105860004CFD04460D46002184EA010069400843CE
:1058700002D0B9F1200FD2D32398CDE9036BCDE943
:10588000050807A91E98CDE9001902900FA80FC8B6
:10589000FFF7DCFE13B0BDE8F08F9A4200D28854C7
:1058A000704770472DE9FF5F05461446DDE90EA6F7
:1058B000DDE91087A34607F0020078B907F0010080
:1058C00060B9B14607E02246641C2020039B019981
:1058D000A84709F10109C145F5D300BF08E02246F8
:1058E000641C711E0E461AF80100039B0199A8471B
:1058F000002EF4D107F0020050B105E02246641CEE
:105900002020039B0199A847A4EB0B004045F5D349
:10591000204604B0BDE8F09F00BF70472DE9FF4F5F
:105920008BB0074600250C9800B9FA4FEAE20E98B2
:10593000007825280AD02A466D1C0E990878DDE9E2
:105940000C13B8470E98401C0E90DBE20E98401CDA
:105950000E90002400BF0E9800782B2819D004DC8C
:1059600020281ED023282CD123E02D2809D0302830
:1059700027D144F001040E98401C0E9001200A909B
:1059800022E044F002040E98401C0E9001200A9080
:105990001AE044F004040E98401C0E9001200A9076
:1059A00012E044F008040E98401C0E9001200A906A
:1059B0000AE044F010040E98401C0E9001200A905A
:1059C00002E000200A9000BF00BF0A980028C2D160
:1059D00080460E990878FDF7DEFE20B10EA8FDF78F
:1059E000C5FE804612E00E9800782A280ED118993C
:1059F00001C91891002804DA44F00204C0F100083B
:105A000000E080460E99491C0E9100BF4FF000093E
:105A10000E9800782E281FD144F480640E98401C04
:105A20000E900E990878FDF7B6FE20B10EA8FDF78E
:105A30009DFE814610E00E9800782A280CD1189916
:105A400001C91891002801DD014600E000218946C6
:105A50000E99491C0E9100BF0E9800786C280AD050
:105A600004DC682816D06A2835D128E0742820D0B4
:105A70007A2830D129E044F480740E98401C0E90AE
:105A80000E9800786C2804D144F400740E98401CE1
:105A90000E9021E044F080040E98401C0E900E9869
:105AA0000078682804D144F040040E98401C0E9001
:105AB00012E044F480740E98401C0E900CE044F404
:105AC00000740E98401C0E9006E044F480740E980A
:105AD000401C0E9000E000BF00BF0E9800786928BF
