:020000040800F2
:10000000E0070020E5010008BD2A0008431A0008A7
:10001000B92A0008290D0008C52D000800000000BD
:10002000000000000000000000000000252B000878
:10003000590D000800000000F92A0008272B0008CD
:10004000FF010008FF010008FF010008FF01000890
:10005000FF010008FF0100086D0D0008FF01000806
:10006000FF010008FF010008FF010008FF01000870
:10007000FF010008FF010008FF010008FF01000860
:10008000FF010008FF010008FF010008FF01000850
:10009000FF010008FF010008FF010008FF01000840
:1000A000FF010008FF010008FF010008FF01000830
:1000B000FF010008FF010008FF010008FF01000820
:1000C000FF010008FF010008FF010008FF01000810
:1000D000FF010008FF010008FF010008FF01000800
:1000E000FF010008FF010008FF010008FF010008F0
:1000F000FF010008FF010008FF010008FF010008E0
:10010000FF010008FF010008FF010008FF010008CF
:10011000FF010008FF010008FF010008FF010008BF
:10012000FF010008FF010008FF010008FF010008AF
:1001300000F002F800F047F80AA090E8000C8244B2
:100140008344AAF10107DA4501D100F03CF8AFF28F
:10015000090EBAE80F0013F0010F18BFFB1A43F0A5
:1001600001031847B4680000D4680000103A24BFA7
:1001700078C878C1FAD8520724BF30C830C144BF0C
:1001800004680C607047000000230024002500264E
:10019000103A28BF78C1FBD8520728BF30C148BFEA
:1001A0000B607047642900F09180002070471FB5F4
:1001B0009DE8030000F0BCFB00F0A8F91FBD10B5DE
:1001C00000F00DFA10BD00F071FA1146FFF7EFFFD5
:1001D00002F008FE00F076FB03B4FFF7F0FF03BC6B
:1001E00000F08AF90948804709480047FEE7FEE722
:1001F000FEE7FEE7FEE7FEE7FEE7FEE7FEE7FEE7D7
:1002000004480549054A064B704700008F2B00083B
:1002100031010008E0010020E0070020E003002099
:10022000E00300200FB4044910B503AA029800F0BF
:1002300049F910BC5DF814FBD40000200FB41CB5C4
:10024000074B06AA7B4469460090059800F021F907
:100250000020694600F030F91CBC5DF814FB00007A
:10026000710200002DE9F0410E4604460020206294
:100270002046E168884730B3252805D0D4E901211C
:100280009047206A401CF2E7E16820460027884733
:10029000050018D0A5F14100192802D820354FF4E7
:1002A00000673246294620462760FFF77BFF40B1B2
:1002B000012804D0F61D26F007060836D8E7361DBB
:1002C000D6E72846DAE7206ABDE8F0812DE9F0415B
:1002D0000646002410687529314616A510D0AFF3E4
:1002E0000080002802DA404213A507E031688A073F
:1002F00001D512A502E0490704D511A5012401E0AA
:10030000AFF3008000210A2206F1240709E0B0FBC8
:10031000F2FCB0FBF2F302FB1C00303078541846BC
:10032000491C0028F3D123462A463046BDE8F04157
:1003300000F051B8000000002D0000002B0000006C
:100340002000000010B5431C02E010F8011B71B141
:100350008107FAD14FF0013202C88C1A8C4314EA9B
:10036000C211F9D0C01A0A0603D0C01E10BDC01AAF
:1003700010BD0A0401D0801E10BD0902FCD0401E31
:1003800010BD4FF0000200B5134694469646203942
:1003900022BFA0E80C50A0E80C50B1F12001BFF43E
:1003A000F7AF090728BFA0E80C5048BF0CC05DF8A4
:1003B00004EB890028BF40F8042B08BF704748BFF2
:1003C00020F8022B11F0804F18BF00F8012B704766
:1003D0007047704770472DE9F0470D4699469246A1
:1003E000044600F124080168880604D5E06921F07C
:1003F0001001216000E00120A84201DD471B00E060
:100400000027A1697A1902EB0900081AA061207877
:10041000C00602D42046AFF30080002608E0D4E9ED
:1004200001211AF806009047206A401C761C2062C1
:100430004E45F4DB2078C0060AD52046AFF3008095
:1004400006E0D4E9012130209047206A401C206258
:10045000381EA7F10107F4DC07E0D4E9012118F800
:1004600005009047206A401C2062281EA5F1010566
:10047000F3DC2046AFF300802078000602D502208E
:10048000BDE8F0870120FBE701694A1C026108789A
:10049000704700B58FB0CDE90131002105910549C4
:1004A0007944CDE9031011466846FFF7DBFE0FB033
:1004B00000BD0000E5FFFFFF0A6802F8010B0A60BB
:1004C00070470000074B70B50D467B44FFF7E1FF16
:1004D0000446284600F016F810B14FF0FF3070BD0A
:1004E000204670BDFB28000008B569468DF8000065
:1004F0000320ABBE08BD000001491820ABBEFEE7DB
:1005000026000200007B00F08000704710B54248D2
:100510005421FFF736FF41485421FFF732FF40488E
:100520005421FFF72EFF3F493B483C4A3F4B0860B0
:100530003D490A603A491960531C0365481C10651F
:10054000012008653B48344A39A1784400F01EF97F
:1005500020B9384878440A3800F0C2F937482F4AA1
:1005600035A1784400F012F920B9344878440A38AB
:1005700000F0B6F932482A4A2FA1784400F006F973
:1005800020B92F4878440A3800F0AAF940232248BD
:10059000DC000021224600F0D5F820B1254878443F
:1005A000543800F09DF91D4822464023002100F0F8
:1005B000C9F820B121487844543800F091F918481E
:1005C00022461023002100F0BDF8002806D01C4868
:1005D0007844BDE81040563800F082B910BD10488C
:1005E00070B5006D20F001040B4800F045F90B4890
:1005F00000F042F90A4800F03FF909E0206D20F0D0
:100600000105204600F038F9204600F074F82C4629
:10061000002CF3D170BD000080000020D400002029
:100620002801002034000020380000203C00002079
:1006300072000000BE64000077000000AA640000A1
:10064000966400000EB5CDE90001FFF77BFE029035
:1006500069460120ABBE0EBD08B569460090022078
:10066000ABBE08BD1FB58DE8070069460520ABBECF
:1006700004B010BD1FB58DE80F0069460620ABBE63
:10068000F6E708B5694600900920ABBE08BD1CB569
:10069000CDE9000169460A20ABBE1CBD704708B514
:1006A000694600900C20ABBE08BD7047754600F04F
:1006B0001FF9AE4605006946534620F007008546FF
:1006C00018B020B5FFF79CFDBDE820404FF00006B4
:1006D0004FF000074FF000084FF0000B21F007012A
:1006E000AC46ACE8C009ACE8C009ACE8C009ACE86D
:1006F000C0098D46704770B50446051F00F0FCF830
:100700000068002C14BF446870BD002C18BFAC42B8
:100710003CBF20466468F8D301680A18AA4218BF93
:10072000456003D12A6805461144016028684119D3
:10073000A1421CBF6C6070BD61686960216808449B
:10074000286070BD70B5C468A50713D0650211D4C8
:10075000B2F5807F09D0B2F5007F06D0B2F5806F88
:1007600008D1012300F1240106E05D1E6FF07F46F1
:10077000B54201D3012070BD0161C361416024F421
:1007800070611143C160002070BD00002DE9F0418F
:100790000C4607461646104600F06EF82078611C9D
:1007A00061280AD0722802D077283CD102E00125C6
:1007B000002405E00225042402E0082448F2020592
:1007C00011F8010B2B2806D0622809D011F8010C72
:1007D00074280AD00BE045F0030544F00204EFE76B
:1007E00045F0040544F00104EAE744F010043846FB
:1007F0002146FFF727FF411C15D0002131617160B0
:100800004FF40071F560F1617061200704D5304646
:100810000222002100F0EAF8306D40F0010030655E
:100820003046BDE8F0810020FBE72DE9F0410D46A0
:100830000646104C206DC10704D0410804D020F0BA
:100840000104F7E722460EE0542000F0A0F807006C
:100850000ED0206D47F00101084354212065384631
:10086000FFF78FFD3A4629463046BDE8F0418DE757
:100870000020D6E7800000202DE9F04704464FF025
:1008800000094FF0FF37C568D4E90486A80707D0F0
:10089000204600F05BF93046FFF7DEFE002802DA62
:1008A0003846BDE8F087280502D54046FFF723FF0C
:1008B0004C212046FFF765FD206D20F001002065EA
:1008C0004846EEE710B50446AFF300802046BDE889
:1008D0001040FFF781BC002801D0FFF70DBE704724
:1008E00010B500F091F9BDE81040FFF7F4BF00002B
:1008F000004870477C0100200048704784010020B8
:10090000704770477047704738B504460A46002064
:100910006946AFF30080002808BF38BD0246009941
:10092000204600F092F9012038BD012000F0C8B93E
:10093000F8B5AFF30080054600200C46102000BF3C
:100940000646A819A0420DD9324669460020AFF3E9
:100950000080070008BF00F0B3F90098A04218BF5C
:100960000546C419FFF7C8FF05600746F01D20F0D3
:1009700007004619284600F061F9B44208BFF8BDE7
:10098000A21B31463868BDE8F84000F05EB970B58A
:100990000646FFF7B1FF056806F10B0020F00704DB
:1009A000B4429CBF002070BD2B466A68BAB1106883
:1009B000A04210D304F1080188423CBF506858603F
:1009C00007D35168101941601168091B0160586014
:1009D0001460101D70BD13465268002AE7D12146ED
:1009E0002846FFF791FF0028DED170BD2DE9F041C8
:1009F000044616460D464769007B80072ED03846D0
:100A0000FFF73FFE50BB3EB3012E02D0022E25D190
:100A100004E0204600F033F905441DE03846FFF7B6
:100A20003EFEE168002841F01001E16005DA204651
:100A300000F058F80120BDE8F081C9030BD56268C9
:100A4000E16A914200D81146A26911442269891ACB
:100A5000814200DD08460544002D01DA0220EAE764
:100A6000E16A6068E268814206D29103E06203D5E0
:100A700022F4003141F01002A6690027AE4213DCD7
:100A8000E16A814201D90B4600E0034603EB060C04
:100A90002369ACEB030CAC4506DD814201D98C46E1
:100AA00000E084469C4505D1A760276042F0200005
:100AB000A5620DE0AD1BE669AE1B8142A66000D9C0
:100AC0000846C01A281A20605819606022F02000D9
:100AD00003490840E060002084F84870ABE700005C
:100AE000BFCFD7FFC16821F4001141F08001C16080
:100AF00000218160016070472DE9F047814614466E
:100B00000E464FF0FF383248D5685769054209D084
:100B10003846A169FFF7BBFD002811DB2C48C04314
:100B20000540E5602B46324649463846FFF79AFDB8
:100B3000A16920F00042B21A11440028A16103D03B
:100B40002046FFF7CFFF4046BDE8F08770B504466A
:100B50000569C06A6168884200D80846E16821F4E6
:100B60002011E160C90312D5A84208D02246411BDA
:100B70002846FFF7C1FF10B14FF0FF3070BD0020D5
:100B8000E562C4E90150E06820F48030E0600020B4
:100B900070BD10B50446C06820F02000E060A16A76
:100BA000A06988420DD02046FFF7D0FFE06820F40E
:100BB000405040F01000E060A06AA0612069E0624F
:100BC000606044F24001E0688843E06010BD0000CE
:100BD0001000020070B505460C460A2000E06D1CAE
:100BE000FFF782FC35B128780028F8D102E0641CB8
:100BF000FFF77AFC14B120780028F8D1BDE87040E6
:100C00000A20FFF771BC000010B5014602A0FFF7F3
:100C1000E1FF012010BD00005349475254524544A2
:100C20003A2052656469726563743A2063616E2785
:100C300074206F70656E3A20000000000021016092
:100C4000C0E90110704710207047034640688C4689
:100C5000002818BF88423CBF03464068F8D3186894
:100C60001844884207D00CF1030020F00700001D53
:100C7000411A521A0146081D0A60FFF73CBD10B523
:100C80000146C268900703D0900607D5886A0AE03B
:100C900000F01EF801210160881E10BD8B694868B4
:100CA00018440B69C01A91F848301BB191F84910EB
:100CB000401A10BD1103FCD50028FADD401E10BDFE
:100CC00010B500F009F8BDE81040FFF704BE0000C1
:100CD000004870477C01002010B5012805D0002194
:100CE00003A0FFF777FF012010BD09A1F8E700007E
:100CF00053494752544D454D3A204F7574206F6605
:100D00002068656170206D656D6F7279000000006C
:100D10003A2048656170206D656D6F727920636F50
:100D2000727275707465640000BFFEE710B5084804
:100D3000084908604FF4E1304860002105488160AF
:100D4000C160016181610C21416100F08FFD10BD26
:100D50000038014040000020704701B502E00098D3
:100D6000401E009000980028F9D108BD704700008F
:100D70002DE9F8470246002400200025844600277C
:100D800000237BE14FF0010808FA03F4D1F800805A
:100D900008EA0400A0427DD1DFF8ECA2D1F804807B
:100DA000A8EB0A09D0453AD014DCB8F1030F50D0B3
:100DB00009DCB8F1000F31D0B8F1010F1CD0B8F147
:100DC000020F49D120E0B8F1110F18D0B8F1120F7D
:100DD00042D11EE0B9F5881F25D006DCB9F5803F69
:100DE00020D0B9F5801F37D11AE0B9F5001F18D00F
:100DF000B9F5041F30D117E0D1F80CC02DE0D1F8BF
:100E00000C8008F1040C28E0D1F80C8008F1080CE3
:100E100023E0D1F80C8008F10C0C1EE000BF00BFED
:100E200000BF00BF00BF00BFD1F80880B8F1000FBD
:100E300002D14FF0040C0BE0D1F80880B8F1010F9B
:100E400003D14FF0080C146102E04FF0080C54611C
:100E500003E04FF0000C00E000BF00BFFF2801D806
:100E6000904601E002F104084646FF2802D84FEA06
:100E7000830803E0A3F108084FEA88084746D6F83C
:100E800000804FF00F0909FA07F928EA09080CFA5F
:100E900007F900E07AE048EA0908C6F80080D1F8CE
:100EA000048008F08058B8F1805F6FD100BFDFF890
:100EB000DC81D8F8188048F00108DFF8D091C9F833
:100EC0001880C846D8F8188008F00108CDF80080CE
:100ED00000BF00BF4FEAB9384FEA930958F82950CC
:100EE0004FEA83784FEA18794FF00F0808FA09F8AB
:100EF00025EA0805DFF89881424502D14FF0000845
:100F000024E0DFF89081424502D14FF001081DE056
:100F1000DFF88481424502D14FF0020816E0DFF885
:100F20007C81424502D14FF003080FE0DFF8708169
:100F3000424502D14FF0040808E0DFF868814245DD
:100F400002D14FF0050801E04FF006084FEA83791F
:100F50004FEA197908FA09F848EA0505DFF84881E7
:100F60004FEA930948F82950D1F8048008F48038F2
:100F7000B8F5803F0BD1DFF83481D8F8008048EA1B
:100F80000008DFF82891C9F800800AE075E0DFF872
:100F90001C81D8F8008028EA0008DFF81091C9F811
:100FA0000080D1F8048008F40038B8F5003F0ED175
:100FB000DFF8F88008F10408D8F8008048EA000853
:100FC000DFF8E89009F10409C9F800800DE0DFF8C6
:100FD000DC8008F10408D8F8008028EA0008DFF86F
:100FE000CC9009F10409C9F80080D1F8048008F414
:100FF0008018B8F5801F0ED1DFF8B08008F108081E
:10100000D8F8008048EA0008DFF8A09009F1080944
:10101000C9F800800DE0DFF8948008F10808D8F8DE
:10102000008028EA0008DFF8849009F10809C9F86F
:101030000080D1F8048008F40018B8F5001F0ED124
:10104000DFF8688008F10C08D8F8008048EA00084A
:10105000DFF8589009F10C09C9F800800DE0DFF8BD
:101060004C8008F10C08D8F8008028EA0008DFF866
:101070003C9009F10C09C9F800805B1C102BFFF4AF
:1010800081AEBDE8F887000000001110001002409A
:1010900000080140000C0140001001400014014014
:1010A00000180140001C01400800014000040140FC
:1010B00001480068704700000400002002480068F2
:1010C000401C0149086070470400002070B50446C8
:1010D000074800684FF47A71B0FBF1F5284600F03C
:1010E000ABFB00222146501E00F004F8002070BD2A
:1010F000000000202DE9F05F80460D4616460027CF
:1011000001F0DEFC074639462A46334601F0070067
:10111000C0F1070ABAF1040F02D94FF0040A01E046
:10112000C0F1070AD14600F1040ABAF1070F02D252
:101130004FF0000A01E0A0F1030AD4464FF0010A83
:101140000AFA09FAAAF1010A0AEA020A0AFA0CFAE8
:101150004FF0010B0BFA0CFBABF1010B0BEA030B8D
:101160004AEA0B042146404601F0B2FCBDE8F09F7C
:1011700070B504460D4600266248006800F007007E
:10118000A8420ED25F48006820F0070028435D495E
:1011900008600846006800F00700A84201D001205E
:1011A00070BD207800F00200022807D15648406840
:1011B00020F0F000A168084353494860207800F00F
:1011C000010000285DD06068012806D14E48006803
:1011D00000F4003090B90120E2E76068022806D1EF
:1011E0004948006800F0007040B90120D8E746483F
:1011F000006800F0020008B90120D1E742484068C9
:1012000020F00300616808433F494860FFF750FF42
:1012100006466068012810D108E0FFF749FF801BEF
:1012200041F28831884201D90320B9E73648406845
:1012300000F00C000428F0D123E06068022810D1EF
:1012400008E0FFF735FF801B41F28831884201D961
:101250000320A5E72C48406800F00C000828F0D1D6
:101260000FE008E0FFF724FF801B41F2883188423D
:1012700001D9032094E72448406800F00C000028BE
:10128000F0D12048006800F00700A8420ED91D48A0
:10129000006820F0070028431A49086008460068E3
:1012A00000F00700A84201D0012079E7207800F083
:1012B0000400042807D11448406820F4E060E16885
:1012C000084311494860207800F00800082808D138
:1012D0000D48406820F46050216940EAC1000A4985
:1012E000486000F03DF808494968C1F30311074A16
:1012F000515CC840064908600F20FFF7E7FE002058
:101300004EE700000020024000100240942E00082A
:101310000000002001480068704700000000002025
:1013200000B5FFF7F7FF04494968C1F30221034AFA
:10133000515CC84000BD000000100240A42E00080F
:1013400000B5FFF7E7FF04494968C1F3C221034A2A
:10135000515CC84000BD000000100240A42E0008EF
:10136000F0B585B00FF2700C9CE8E01001A8A0E881
:10137000E0101DA52D680095002100240022002307
:1013800000201A4D696801F00C05FDB1042D02D052
:10139000082D1AD101E016481AE001ADC1F38346C9
:1013A000AB5D01F480355DB1104D6D68C5F340450E
:1013B0001DF805400E4DB5FBF4F505FB03F202E008
:1013C0000C4D03FB05F2104602E000BF084800BFC9
:1013D00000BF05B0F0BD00000203040506070809C0
:1013E0000A0B0C0D0E0F101001020000001002403D
:1013F00000127A0000093D00F8B504460025207867
:1014000000F00100002878D0F848406800F00C0097
:1014100004280CD0F548406800F00C00082811D1D1
:10142000F248406800F48030B0F5803F0AD1EF48C0
:10143000006800F4003000285FD0606800285CD1AC
:101440000120F8BD00BF6068B0F5803F06D1E748D5
:10145000006840F48030E549086028E0606858B9C9
:10146000E248006820F48030E049086008460068DF
:1014700020F4802008601AE06068B0F5A02F0BD13E
:10148000DA48006840F48020D849086008460068BF
:1014900040F4803008600AE0D448006820F48030CE
:1014A000D24908600846006820F48020086000BF28
:1014B000606888B1FFF7FCFD054606E0FFF7F8FD20
:1014C000401B642801D90320BBE7C848006800F42A
:1014D00000300028F2D010E0FFF7EAFD054606E0F4
:1014E000FFF7E6FD401B642801D90320A9E7BF48A8
:1014F000006800F400300028F2D1207800F00200EB
:10150000022857D1B948406800F00C0050B1B748E4
:10151000406800F00C00082818D1B448406800F476
:10152000803098B9B148006800F0020020B120690D
:10153000012801D0012084E7AC48006820F0F800C1
:10154000616940EAC100A949086033E02069E8B157
:101550000120A7490860FFF7ABFD054606E0FFF74D
:10156000A7FD401B022801D903206AE79F480068B5
:1015700000F002000028F2D09C48006820F0F8003B
:10158000616940EAC1009949086013E00020984968
:101590000860FFF78DFD054606E0FFF789FD401B5B
:1015A000022801D903204CE79048006800F00200AF
:1015B0000028F2D1207800F0080008282DD1A06979
:1015C000B8B101208B490860FFF772FD054606E0BF
:1015D000FFF76EFD401B022801D9032031E7834845
:1015E000406A00F002000028F2D0012001F086FAE3
:1015F00013E000207F490860FFF75AFD054606E02A
:10160000FFF756FD401B022801D9032019E7774850
:10161000406A00F002000028F2D1207800F00400B7
:10162000042873D100267148C06900F0805070B959
:1016300000BF6E48C06940F080506C49C8610846E0
:10164000C06900F08050009000BF00BF01266A48CA
:10165000006800F48070B0B96748006840F480709A
:1016600065490860FFF724FD054606E0FFF720FD09
:10167000401B642801D90320E3E65F48006800F4BA
:1016800080700028F2D000BFE068012806D15748DA
:10169000006A40F001005549086227E0E06858B947
:1016A0005248006A20F00100504908620846006A6A
:1016B00020F00400086219E0E06805280BD14B48CF
:1016C000006A40F00400494908620846006A40F098
:1016D000010008620AE04548006A20F00100434921
:1016E00008620846006A20F00400086200BFE06853
:1016F000A0B1FFF7DDFC054609E0FFF7D9FC401B70
:1017000041F28831884202D903209AE622E0374824
:10171000006A00F002000028EFD012E0FFF7C8FCDA
:10172000054608E0FFF7C4FC401B41F288318842BF
:1017300001D9032085E62D48006A00F00200002848
:10174000F0D1012E05D12948C06920F080502749E9
:10175000C86100BFE069C8B32448406800F00C00CD
:10176000082860D0E069022848D100202049086696
:10177000FFF79EFC054606E0FFF79AFC401B022897
:1017800001D903205DE61948006800F000700028C8
:10179000F2D1206AB0F5803F07D11448406820F4A8
:1017A0000030A168084311494860D4E908010843A2
:1017B0000E49496821F4741108430C49486001201E
:1017C0000B490866FFF774FC054607E02DE0FFF7BC
:1017D0006FFC401B022801D9032032E60348006851
:1017E00000F000700028F2D01FE00000001002405E
:1017F00000004242800442420070004000200C4938
:101800000866FFF755FC054606E0FFF751FC401B54
:10181000022801D9032014E60648006800F0007091
:101820000028F2D101E001200BE6002009E60000CB
:10183000000042420010024070B504462546681E72
:10184000B0F1807F01D301200FE0681E4FF0E0214E
:1018500048610F214FF0FF3001F03AF900204FF0BE
:10186000E021886107200861002070BD10B50446A2
:101870000CB9012010BDA06900B100E000BF94F8D0
:10188000390028B9002084F83800204600F028F8F4
:10189000242084F839002068C06820F400502168B2
:1018A000C860204601F074F92068006920F4904077
:1018B000216808612068406920F02A002168486199
:1018C0002068C06840F400502168C8600020E063D0
:1018D000202084F8390084F83A000020CAE700008C
:1018E00010B586B0044600BF1E48806940F48040B1
:1018F0001C4988610846806900F48040019000BF5F
:1019000000BF00BF0846806940F0040088610846B7
:10191000806900F00400019000BF00BF00BF0846CE
:10192000806940F0040088610846806900F0040086
:10193000019000BF00BF48150290022003900120D3
:1019400004900320059002A90748FFF711FA4FF40D
:10195000806002900020039002A90348FFF708FA74
:1019600006B010BD00100240000801402DE9F84308
:1019700004460D4616461F464FF0000994F83900FC
:1019800020285CD105B116B90120BDE8F88300BF5D
:1019900094F83800012801D10220F6E7012084F8EC
:1019A000380000BF0020E063212084F83900FFF7F1
:1019B0007FFB8146A684E6842BE0E08C401EE08419
:1019C000A068B0F5805F16D14B46002280212046EA
:1019D000009701F0C1F908B10320D6E7A846B8F88E
:1019E0000000C0F3080021684860206908B9AD1CF8
:1019F0000FE06D1C0DE04B46002280212046009731
:101A000001F0AAF908B10320BFE715F8010B21681E
:101A10004860E08C0028D0D14B460022402120466F
:101A2000009701F099F908B10320AEE7202084F86F
:101A3000390000BF002084F8380000BFA5E702206D
:101A4000A3E700BFFEE7000020B14FF48021034A66
:101A5000116002E00421014A116070471014014036
:101A60002DE9F04106460F4614461D462B462246F8
:101A70003946304600F0CEFA04FB05F002490988E9
:101A800000F0BEF9BDE8F0813200002001B502E0AF
:101A90000098401E009000980028F9D108BD000071
:101AA0002DE9F05F804689461646A6F120001FFA10
:101AB00080FA1E49096889881C4A1268D28801FB8D
:101AC00002F0C11700EB5171C1F3C7071748006856
:101AD00000680AFB070B15480068C38813480068B4
:101AE00082884946404600F095FA2C2000F0E6FD39
:101AF000002416E0002510E01BF804008021294195
:101B0000084020B10A48008800F0ECFD03E00948D5
:101B1000008800F0E7FD681CC5B2082DECDB601CF6
:101B2000C4B2BC42E6DBBDE8F09F00002C00002000
:101B3000300000203200002070B504460D4600261B
:101B400024E0304613490968898808441249098805
:101B5000884205DD00260F480068C088204484B212
:101B600020460C490968C98808440C4909888842FC
:101B700001DD002600242A7821463046FFF790FF39
:101B80006D1C044800688088304486B2287800289C
:101B9000D7D170BD2C00002024000020260000209A
:101BA0002DE9F05F05460E4691469B4600240FFA4C
:101BB00089F70320A0EB49000FFA80FA87E0BBF118
:101BC000000F40D0A0463BE006EB080291B22A1974
:101BD00090B200F057FD06EB080291B22A1B90B2BA
:101BE00000F050FD321991B2A5EB080290B200F05E
:101BF00049FD321B91B2A5EB080290B200F042FD04
:101C0000A6EB080291B22A1B90B200F03BFDA6EBB6
:101C1000080291B22A1990B200F034FD321B91B241
:101C200005EB080290B200F02DFD321991B205EBE0
:101C3000080290B200F026FD08F101000FFA80F8CA
:101C4000B845C1DD2FE0F21991B22A1990B200F027
:101C500019FDF21991B22A1B90B200F013FD32194E
:101C600091B2EA1B90B200F00DFD321B91B2EA1B5B
:101C700090B200F007FDF21B91B22A1B90B200F067
:101C800001FDF21B91B22A1990B200F0FBFC321B4D
:101C900091B2EA1990B200F0F5FC321991B2EA194A
:101CA00090B200F0EFFC601C04B2BAF1000F05DA4C
:101CB000A000801D50440FFA80FA07E0E01B80006E
:101CC0000A3050440FFA80FA781E07B200BFBC42B7
:101CD0007FF775AFBDE8F09F2DE9FF4F83B08146D8
:101CE0004FF0000AD3460598A0EB09050499069821
:101CF000461ACDF8049004980090002D01DD0127CC
:101D000005E00DB9002702E04FF0FF376D42002ECD
:101D100002DD4FF0010806E016B94FF0000802E0BE
:101D20004FF0FF387642B54201DD2C4600E03446E4
:101D30000020029019E0DDE9001000F0A3FCAA44A5
:101D4000B344A24505DDAAEB040A0198384480B2E9
:101D50000190A34505DDABEB040B0098404480B235
:101D600000900298401C80B20290611C0298884248
:101D7000E1DD07B0BDE8F08F2DE9F04104460D46E6
:101D800016461F46DDF81880B8F1000F0CD03B4610
:101D900032462946204600F03DF906FB07F0174978
:101DA000098800F02DF827E0A019401E82B22B46CA
:101DB00029462046FFF790FFE819401E83B2A0197C
:101DC000401E82B2E819401E81B22046FFF784FF10
:101DD000E819401E83B2224629462046FFF77CFFC1
:101DE000E919491E8BB2A119491E8AB2A119491ECF
:101DF00088B22946FFF770FFBDE8F081300000206F
:101E000070B504460D4600262C2000F057FC00BF9C
:101E100003E0284600F066FC761CA642F9D370BDAC
:101E200000B585B000BF3648806940F010003449E5
:101E300088610846806900F01000009000BF00BF74
:101E400000BF0846806940F020008861084680692C
:101E500000F02000009000BF00BF00BF084680696E
:101E600040F0080088610846806900F00800009092
:101E700000BF00BF00BF0846806940F001008861D4
:101E80000846806900F00100009000BF00BF00BF5D
:101E90001C48406820F0E0601A49486008464068E5
:101EA00040F00070486000BF0120029003900320C2
:101EB00004904FF6FF70019001A91348FEF758FFF8
:101EC0002020019001A91148FEF752FF4020019007
:101ED00001A90E48FEF74CFF1020019001A90B4804
:101EE000FEF746FF8020019001A90848FEF740FF59
:101EF0000420019001A90648FEF73AFF05B000BD95
:101F00000010024000000140000C014000100140A0
:101F10000014014010B50446072C00DD10BD314807
:101F20000470204604EBD0714910A4EB410139B98B
:101F3000F0202D4908804FF4A0702C49088006E05D
:101F40004FF4A07028490880F020284908803620E6
:101F500000F0B4FB2648008849F24131884205D19F
:101F6000082141EA441000F0BDFB0AE02048008847
:101F700048F25251884204D1002141EA441000F055
:101F8000B1FB2A2000F09AFB002000F0ABFB002000
:101F900000F0A8FB14490988491EC1F3072000F08E
:101FA000A1FB11490978491EC8B200F09BFB2B2008
:101FB00000F084FB002000F095FB002000F092FB75
:101FC0000A490988491EC1F3072000F08BFB074925
:101FD0000978491EC8B200F085FB2C2000F06EFB8A
:101FE00000BF9BE7280000202400002026000020DE
:101FF0002A00002010B5FFF713FF0120FFF724FD92
:1020000000F038F802480078FFF784FF10BD0000A8
:10201000280000202DE9F04104460D4616461F46D3
:102020002A2000F04BFB201200F05CFBE0B200F035
:1020300059FBA119491EC1F30F2000F053FBA11950
:10204000491EC8B200F04EFB2B2000F037FB2812CF
:1020500000F048FBE8B200F045FBE919491EC1F366
:102060000F2000F03FFBE919491EC8B200F03AFB0F
:10207000BDE8F08110B500F09DFAFE4908800846E1
:10208000008849F2413188427ED14FF6FF70FFF758
:10209000FDFCCF2000F012FB002000F023FB81208C
:1020A00000F020FB302000F01DFB4FF6FF70FFF723
:1020B000EDFCED2000F002FB642000F013FB032098
:1020C00000F010FB122000F00DFB812000F00AFB55
:1020D0004FF6FF70FFF7DAFCE82000F0EFFA8520FA
:1020E00000F000FB102000F0FDFA782000F0FAFA72
:1020F0004FF6FF70FFF7CAFCCB2000F0DFFA392063
:1021000000F0F0FA2C2000F0EDFA002000F0EAFADE
:10211000342000F0E7FA032000F0E4FA4FF6FF70F5
:10212000FFF7B4FCF72000F0C9FA202000F0DAFA3B
:102130004FF6FF70FFF7AAFCEA2000F0BFFA00207C
:1021400000F0D0FA002000F0CDFA4FF6FF70FFF754
:102150009DFCB12000F0B2FA002000F0C3FA1B2071
:1021600000F0C0FA4FF6FF70FFF790FCB62000F0C9
:10217000A5FA0A2000F0B6FAA22000F0B3FA4FF652
:10218000FF70FFF783FC00E0D6E0C02000F096FA75
:10219000352000F0A7FA4FF6FF70FFF777FCC1205B
:1021A00000F08CFA112000F09DFAC52000F086FAAC
:1021B000452000F097FA452000F094FAC72000F07F
:1021C0007DFAA22000F08EFAF22000F077FA0020CB
:1021D00000F088FA262000F071FA012000F082FA5F
:1021E0004FF6FF70FFF752FCE02000F067FA0F2077
:1021F00000F078FA262000F075FA242000F072FA38
:102200000B2000F06FFA0E2000F06CFA092000F0AD
:1022100069FA542000F066FAA82000F063FA46201C
:1022200000F060FA0C2000F05DFA172000F05AFA76
:10223000092000F057FA0F2000F054FA072000F0B0
:1022400051FA002000F04EFAE12000F037FA0020A9
:1022500000F048FA192000F045FA1B2000F042FA7D
:10226000042000F03FFA102000F03CFA072000F0B4
:1022700039FA2A2000F036FA472000F033FA3920E4
:1022800000F030FA032000F02DFA062000F02AFAC0
:10229000062000F027FA302000F024FA382000F061
:1022A00021FA0F2000F01EFA4FF6FF70FFF7EEFB49
:1022B000362000F003FAC82000F014FA4FF6FF7041
:1022C000FFF7E4FB2A2000F0F9F9002000F00AFAF9
:1022D000002000F007FA002000F004FAEF2000F0E0
:1022E00001FA4FF6FF70FFF7D1FB2B2000F0E6F963
:1022F000002000F0F7F9002000F0F4F9012000F0D0
:10230000F1F93F2000F0EEF94FF6FF70FFF7BEFB4A
:102310003A2000F0D3F9552000F0E4F9112000F044
:10232000CDF95548FFF7B2FB4FF6FF70FFF7AEFB54
:10233000292000F0C3F939E14E48008848F2525193
:102340008842F8D14FF6FF70FFF7A0FBCF2000F0D6
:10235000B5F9002000F0C6F9C12000F0C3F9302023
:1023600000F0C0F94FF6FF70FFF790FBED2000F092
:10237000A5F9642000F0B6F9032000F0B3F91220AB
:1023800000F0B0F9812000F0ADF94FF6FF70FFF7D3
:102390007DFBE82000F092F9852000F0A3F91020E1
:1023A00000F0A0F9782000F09DF94FF6FF70FFF7DC
:1023B0006DFBCB2000F082F9392000F093F92C203E
:1023C00000F090F9002000F08DF9342000F08AF937
:1023D000022000F087F94FF6FF70FFF757FBF72058
:1023E00000F06CF9202000F07DF94FF6FF70FFF748
:1023F0004DFBEA2000F062F9002000F073F90020A4
:1024000000F070F94FF6FF70FFF740FBC02000F0BE
:1024100055F9212000F066F94FF6FF70FFF736FB03
:10242000C12000F04BF9112000F05CF9C52000F04C
:1024300045F92D2000F056F9332000F053F94FF6FE
:10244000FF70FFF723FB362000F038F9002000F082
:1024500049F94FF6FF70FFF719FB3A2000F02EF90B
:10246000552000F03FF94FF6FF70FFF70FFBB1204A
:1024700004E000002A000020FCBF020000F01EF96A
:10248000002000F02FF9172000F02CF94FF6FF7014
:10249000FFF7FCFAB62000F011F90A2000F022F94B
:1024A000A22000F01FF9F62000F008F9012000F04A
:1024B00019F9302000F016F9F22000F0FFF80020A2
:1024C00000F010F9262000F0F9F8012000F00AF9D8
:1024D0004FF6FF70FFF7DAFAE02000F0EFF8D020B7
:1024E00000F000F9002000F0FDF8022000F0FAF8FA
:1024F000072000F0F7F80B2000F0F4F81A2000F0A5
:10250000F1F8312000F0EEF8542000F0EBF8402014
:1025100000F0E8F8292000F0E5F8122000F0E2F8D9
:10252000122000F0DFF8122000F0DCF8172000F095
:10253000D9F8E12000F0C2F8D02000F0D3F8002054
:1025400000F0D0F8022000F0CDF8072000F0CAF823
:10255000052000F0C7F8252000F0C4F82D2000F079
:10256000C1F8442000F0BEF8452000F0BBF81C2064
:1025700000F0B8F8182000F0B5F8162000F0B2F816
:102580001C2000F0AFF81D2000F0ACF8112000F086
:1025900095F80748FFF77AFA4FF6FF70FFF776FADB
:1025A000292000F08BF82C2000F088F810BD0000E6
:1025B000FCBF020010B50024042000F07FF800F0FA
:1025C0002BF800F029F800F027F804464FF6FF70CA
:1025D00000EA042400F020F8044348F252508442F8
:1025E00001D1204610BDD32000F068F800F014F8A7
:1025F00000F012F800F010F804464FF6FF7000EA01
:10260000042400F009F8044349F24130844201D126
:102610002046E7E70020E5E74FF08831124A1160D5
:10262000121D11600021104A0C32116080210F4AE6
:1026300011614021116110215161202151610A492C
:102640000831096888B220211161102111614FF011
:102650003331054A1160121D11604FF6FF71024AB5
:102660000C32116070470000000C01400010014066
:1026700070B504460D4601231A4629462046FFF749
:10268000C9FC70BD70B505460C46094800888542F6
:102690000CDA08480088844208DA21462846FFF709
:1026A000E7FF054801880120FFF7AAFB70BD000085
:1026B0002400002026000020300000201021074ABE
:1026C000516180215161202111610549086040213B
:1026D000516111611021116170470000001001402B
:1026E0000C0C01401021074A516180211161202109
:1026F000116105490860402151611161102111618A
:1027000070470000001001400C0C014070B50446F9
:1027100000F00CF8C5882B460348028821460020AB
:10272000FFF79EF970BD00002400002001480068FA
:10273000704700002C000020024A1080024A1180DD
:10274000704700003000002032000020014908607E
:10275000704700002C0000200149088070470000ED
:102760003000002010B59AB0A1480078401CA04964
:102770000870A048FFF7EAFF00214FF47840FFF708
:10278000DBFF9D4803889D48028800210846FFF72B
:1027900067F9FFF7CBFF002499A12046FFF7CCF99A
:1027A000FFF7C4FFC4889DA12046FFF7C5F9A248E2
:1027B000008849F24131884209D1FFF7B7FFC0884C
:1027C0004004040C9DA12046FFF7B6F90EE09A489C
:1027D000008848F25251884208D1FFF7A7FFC0880D
:1027E0004004040C9AA12046FFF7A6F9FFF79EFFCC
:1027F000C08800EB400084B29AA12046FFF79CF904
:102800009F48FFF7A3FF4FF4FC60FFF7A5FF784850
:1028100002789CA101A8FDF711FDFFF787FFC08892
:102820008004040C2046FFF771FFFFF77FFFC0888C
:102830008004040C01A92046FFF77EF99448FFF7B5
:1028400085FFFFF773FFC0888004040C2046FFF764
:102850005DFF1F20FFF780FFFFF768FFC08880043F
:10286000040C8CA12046FFF767F94FF47840FFF77E
:1028700073FFE623D222AA213220FFF72DFAF0239C
:10288000D222C8213220FFF727FA4FF4FC60FFF76D
:1028900063FFE623C822AA216420FFF71DFAF02374
:1028A000DC22C8210846FFF717FA1F20FFF754FF64
:1028B000E6236E22AA211046FFF70EFAF023DC224F
:1028C000C8218220FFF708FA6FF07F40FEF745FA33
:1028D00049480088803883B2484802888021002017
:1028E000FFF7BEF8FFF722FFC0888004040C2046E3
:1028F000FFF70CFF1F20FFF72FFFFFF717FFC08820
:102900008004040C66A12046FFF716F94FF47840C6
:10291000FFF722FF01201E236422C82100903220ED
:10292000FFF72AFA4FF4FC60FFF716FF0020282378
:102930001422C8210090A020FFF71EFA1F20FFF7E5
:102940000BFF012014233222C8210090AA20FFF798
:1029500013FA6FF07F40FEF700FA274800888038AE
:1029600083B22648028880210020FFF779F8FFF71C
:10297000DDFEC0888004040C2046FFF7C7FE1F2040
:10298000FFF7EAFEFFF7D2FEC0888004040C47A1DF
:102990002046FFF7D1F84FF47840FFF7DDFE002323
:1029A0001422C8216420FFF7FBF84FF4FC60FFF706
:1029B000D3FE01230A22C8216420FFF7F1F81F206B
:1029C000FFF7CAFE00231422C8218C20FFF7E8F885
:1029D0006FF07F40FEF7C1F907480088803883B266
:1029E0000648028880210020FFF73AF81AB010BD8F
:1029F000080000200C0000202600002024000020F9
:102A0000424820332E325F322E3820696E636820B0
:102A10004C434420706172613A000000496D616767
:102A200065207265736F6C7574696F6E3A323430FD
:102A300078333230207078002A000020494C493920
:102A4000333431204C43442064726976657200004F
:102A500053543737383956204C43442064726976D2
:102A6000657200005850543230343620546F75630C
:102A7000682050616420647269766572000000000D
:102A800014000020436F756E74203A2025642000E6
:102A90001C00002044726177206C696E653A00006A
:102AA0004472617720526563743A00004472617722
:102AB000204369723A00000000BFFEE77047000043
:102AC00002480068C0F30220704700000CED00E0EF
:102AD00010B5002807DA0A07140E054A00F00F03A4
:102AE0001B1FD45403E00A07130E024A135410BDEF
:102AF00018ED00E000E400E07047000008B5084968
:102B00000968C9084FF47A72B1FBF2F141430091B0
:102B100000BF00BF00994A1E00920029F9D108BDEC
:102B200000000020704710B5FEF7C8FA10BD00B5D0
:102B30008FB014210AA8FDF724FC28216846FDF770
:102B400020FC01200090000401900020029002204F
:102B50000790C10308914FF4E01109916846FEF710
:102B60004BFC08B100BFFEE70F200A9002200B903B
:102B700000200C900E904FF480600D9002210AA866
:102B8000FEF7F6FA08B100BFFEE70FB000BD7047D0
:102B90002DE9F041044600252068006920F44050EA
:102BA000E1680843216808612169A06808436169F8
:102BB000084305432068C06841F20C6188432843FC
:102BC0002168C8602068406920F44070A16908430A
:102BD000216848615F49206888425CD1FEF7B0FBFC
:102BE00000EBC00101EB001061688900B0FBF1F659
:102BF000FEF7A6FB00EBC00101EB00106168890045
:102C0000B0FBF1F06421B0FBF1F000EBC00101EB8F
:102C10000010A6EB8000322101EB00106421B0FB14
:102C2000F1F000F0F006FEF78BFB00EBC00101EBCA
:102C3000001061688900B0FBF1F06421B0FBF1F095
:102C400006EB0016FEF77CFB00EBC00101EB001069
:102C500061688900B0FBF1F7FEF772FB00EBC00181
:102C600001EB001061688900B0FBF1F06421B0FB5A
:102C7000F1F000EBC00101EB0010A7EB8000322166
:102C800001EB00106421B0FBF1F000F00F003044C4
:102C9000216888605BE0FEF743FB00EBC00101EBBD
:102CA000001061688900B0FBF1F6FEF739FB00EB1C
:102CB000C00101EB001061688900B0FBF1F06421F4
:102CC000B0FBF1F000EBC00101EB0010A6EB8000BF
:102CD000322101EB00106421B0FBF1F000F0F006AE
:102CE000FEF71EFB00EBC00101EB001061688900DC
:102CF000B0FBF1F06421B0FBF1F006EB0016FEF73B
:102D00000FFB00EBC00101EB001061688900B0FB14
:102D1000F1F7FEF705FB00EBC00101EB0010616865
:102D20008900B0FBF1F06421B0FBF1F000EBC001D1
:102D300001EB0010A7EB8000322101EB00106421B1
:102D4000B0FBF1F000F00F00304421688860BDE86E
:102D5000F0810000003801402DE9F04104460D46A5
:102D600017469846069E21E0701CF8B12EB1FEF77A
:102D70009FF9A0EB0800B04218D92068C06820F481
:102D8000D0702168C8602068406920F00100216887
:102D90004861202084F8390084F83A0000BF002000
:102DA00084F8380000BF0320BDE8F0812068006887
:102DB0002840A84201D1012000E00020B842D3D031
:102DC0000020F1E700BFFEE713B50C464FF47A731D
:102DD000012269460248FEF7C9FD00981CBD0000AB
:102DE00040000020FFF7A3FEFDF7A0FFFFF702F968
:102DF0000EA0FDF717FA19A0FDF714FA2448008871
:102E000049F24131884203D10620FFF783F808E0F8
:102E10001F48008848F25251884202D10020FFF733
:102E200079F801E0FFF79EFCFCE700000D0A202A7C
:102E30002A2A2A2A2A2A2A2A2A20D2BABEA7C6C180
:102E4000D3A2CEC4CFD4CABEB3CCD0F22A2A2A2A67
:102E50002A2A2A2A2A2A2A200D0A00000D0A20B12D
:102E6000BEB3CCD0F2B2BBD6A7B3D6D6D0CEC4A315
:102E7000ACCFD4CABED6D0CEC4B5C4B3CCD0F2C7C2
:102E8000EBD1A7CFB0CFC2D2BBD5C2200D0A000074
:102E90002A000020000000000000000001020304DE
:102EA00006070809000000000102030400000000FA
:102EB00000000000000000000000000000000018FA
:102EC000181818181808000818000000000000342E
:102ED0002424240000000000000000000000000086
:102EE00016247F2424247E242400000000000008EF
:102EF0003E6848681C1612127C1010000000006129
:102F0000D296740810162949C6000000000000007F
:102F10003C646438724ACE467F000000000000180E
:102F20001818180000000000000000000000000455
:102F3000081810303030301010180C040000002039
:102F40001008080C0404040C0818102000000008E5
:102F50000A341C6A080000000000000000000000A5
:102F600000001818187F1818180000000000000052
:102F700000000000000000181808300000000000E9
:102F800000000000003C0000000000000000000005
:102F900000000000000000181800000000000002FF
:102FA00006040C080810102020400000000000005B
:102FB0003C6642475B7342663C0000000000000034
:102FC00018784808080808087E0000000000000083
:102FD0003C460606040810207E00000000000000A9
:102FE0007C0606043C0202067C0000000000000093
:102FF0000C1C14246444FF040400000000000000C2
:103000007E6060607E0202067C000000000000001E
:103010001E306048764242623C0000000000000022
:103020007E0206040C0818103000000000000000AA
:103030003C6242361C6642423C0000000000000038
:103040003C664242661A020478000000000000005C
:103050000000181800000018180000000000000010
:1030600000001818000000181808300000000000C8
:10307000000004183060100C060000000000000082
:10308000000000007E007E00000000000000000044
:103090000000301804060C10200000000000003072
:1030A0001C06060618100010100000000000001C8E
:1030B000224141DDB5A5A5AF94C0403C0000000011
:1030C000181C342426627E43C1000000000000006A
:1030D0007C4642467C4242427C00000000000000E8
:1030E0001E204040404040603E00000000000000C4
:1030F0007C46424343434246780000000000000003
:103100007E6060607E6060607E0000000000000005
:103110007E6060607E606060600000000000000013
:103120001E604040CE4242623E00000000000000AF
:10313000424242427E424242420000000000000001
:103140007E181818181818187E00000000000000DB
:103150007C0404040404044478000000000000001F
:103160004244485070584C444200000000000000A7
:1031700020202020202020203E0000000000000011
:103180006266675F5B5BC1C1C100000000000000B8
:10319000626272525A4A4E46460000000000000029
:1031A0003C6243C3C3C343623C0000000000000014
:1031B0007C4642424678404040000000000000004B
:1031C0003C6243C3C3C343623C180F0000000000CD
:1031D0007C6662667C6C6466620000000000000031
:1031E0003E6040601C0602027C00000000000000FF
:1031F0007F18181818181818180000000000000090
:1032000042424242424242623C0000000000000052
:10321000C14342622624341C180000000000000054
:10322000C1C141495B5B766666000000000000009A
:1032300043663418181C2466C30000000000000018
:10324000C14266341C181818180000000000000065
:103250007E02040C181020607E0000000000001C9C
:1032600010101010101010101010101C0000004052
:103270002020101008080C04060200000000003C8A
:103280000C0C0C0C0C0C0C0C0C0C0C3C000000007E
:10329000181C246200000000000000000000000074
:1032A0000000000000000000000000FF00000020FF
:1032B00010000000000000000000000000000000FE
:1032C00000003C06023E42467A000000000000403A
:1032D00040405C62424242427C000000000000002C
:1032E00000001E20604060203E0000000000000240
:1032F00002023E62424242663A00000000000000C4
:1033000000003C62427E40603E0000000000000F72
:103310001810107E101010101000000000000000A7
:1033200000003F66426658403E43423C0000004079
:1033300040405C62424242424200000000000018ED
:1033400018007808080808087E0000000000000443
:103350000C007C040404040404040C7800000060E5
:103360006060626C78706864620000000000007841
:1033700008080808080808087E000000000000008F
:103380000000764B4B4B4B4B4B0000000000000005
:1033900000005C6242424242420000000000000025
:1033A00000003C62424342623C000000000000001A
:1033B00000005C62424242427C404040000000000B
:1033C00000003E62424242663A02020200000000F1
:1033D00000006E726360606060000000000000002A
:1033E00000003E20203C06027C000000000000009F
:1033F0001010FE10101010101E0000000000000041
:1034000000004242424242663A00000000000000D2
:103410000000434266243418180000000000000039
:103420000000C1C15B5A5E6666000000000000003B
:10343000000062261C181C2662000000000000002C
:10344000000043426624341C181830E000000000DD
:1034500000007E060C1810207E0000000000000E08
:1034600018101010307010101010180E00000808FE
:1034700008080808080808080808080800000030BC
:10348000180808080C0E080808081830000000008A
:1034900000000000714B060000000000000000006A
:1034A000000000000000000000000000000000001C
:1034B000000000000000000000000000000000000C
:1034C00000000000000000000000000000000000FC
:1034D0000000000000000380018001800180018065
:1034E000018001800180018001800000000003C094
:1034F00003C0000000000000000000000000000009
:103500000000000000000E700E700E700C30000005
:1035100000000000000000000000000000000000AB
:10352000000000000000000000000000000000009B
:1035300000000000000000000618063806307FFE7C
:103540000C300C300C300C307FFE0C601C601860AE
:1035500018600000000000000000000000000000F3
:103560000000000000C000C00FF83CC831C031802E
:103570003D801F8003F001F8031C030C031C3FF87F
:103580003FE007000600000000000000000000000F
:10359000000000001C007E0E630C631863307E6028
:1035A00000C001800300077C0EE61CC618C630C6AA
:1035B000607C00000000000000000000000000002F
:1035C0000000000000000FE01CF0387038701C6034
:1035D0001FC00F003F8C71CC60EC607C70383CFCED
:1035E0001FCE0000000000000000000000000000EE
:1035F00000000000000003C0018001800180000085
:1036000000000000000000000000000000000000BA
:1036100000000000000000000000000000000000AA
:1036200000000000003000E001C00180030007003E
:10363000060006000E000E000E000E000600070039
:103640000300038001C000E0003000000000000023
:10365000000000000C0006000380018001C000E0B3
:10366000006000600070007000700060006000E0AA
:1036700000C00180038006000C0000000000000074
:10368000000000000000018011881DB803C007E0A1
:103690003DBC018801800000000000000000000027
:1036A000000000000000000000000000000000001A
:1036B0000000000000000000000000000180018008
:1036C0000180018001807FFE0180018001800180F6
:1036D00000000000000000000000000000000000EA
:1036E00000000000000000000000000000000000DA
:1036F00000000000000000000000000003C003C044
:1037000001C001C003801F00000000000000000095
:1037100000000000000000000000000000000000A9
:103720000000000000000FF000000000000000009A
:103730000000000000000000000000000000000089
:103740000000000000000000000000000000000079
:1037500000000000000000000000000003C003C0E3
:1037600003C0000000000000000000000000000096
:10377000000000000000001800380030006000E089
:1037800000C001C001800300030006000E000C0011
:103790001C001800300000000000000000000000C5
:1037A00000000000000001800FF01C38381C301CA5
:1037B000707E70EE738E7E0E7C0C300C381C1E7882
:1037C0000FE000000000000000000000000000000A
:1037D000000000000000000007C01FC039C001C089
:1037E00001C001C001C001C001C001C001C03FFC57
:1037F0003FFC00000000000000000000000000008E
:1038000000000000000003801FF018380038001886
:1038100000380038007001E0038007001C003FFC06
:103820003FFC00000000000000000000000000005D
:1038300000000000000007801FF00038003800384A
:10384000003007E007F00038001C001C001820F8CA
:103850003FE0000000000000000000000000000049
:10386000000000000000000000F001B0033007304D
:103870000E301C30383070307FFE7FFE003000305C
:103880000030000000000000000000000000000008
:1038900000000000000000001FF8180018001800C9
:1038A00018001FE000F8001C001C001C003800F08D
:1038B0001FC0000000000000000000000000000029
:1038C000000000000000000003F80F001C001800BA
:1038D000300037F83C3C300C300C380C381C1E38AB
:1038E0000FF00000000000000000000000000000D9
:1038F00000000000000000003FFC001C0018003821
:103900000070006000E001C0018003800700060035
:103910000E00000000000000000000000000000099
:1039200000000000000003C01FF8381C381C381CC1
:103930001C380FF007F01C78381C300C381C3C3851
:103940000FF0000000000000000000000000000078
:1039500000000000000003801FF03838301C701C8D
:10396000700C380C1FFC0FCC001C001800701FE0FE
:103970001F800000000000000000000000000000A8
:10398000000000000000000000000000000003C074
:1039900003C00180000000000000000003C003C05D
:1039A00003C0000000000000000000000000000054
:1039B000000000000000000000000000000003C044
:1039C00003C00180000000000000000003C003C02D
:1039D00001C001C003800F000000000000000000D3
:1039E000000000000000000000000000003800F0AF
:1039F00001C007001E0038000E00078001C00070E3
:103A00000030000000000000000000000000000086
:103A100000000000000000000000000000000000A6
:103A200000003FFC000000003FFC3FFC00000000E5
:103A30000000000000000000000000000000000086
:103A40000000000000000000000000001C000F004B
:103A5000038001E00078001C007001E003800E008C
:103A60000C0000000000000000000000000000004A
:103A70000000000000000FC000F0003800380038DF
:103A8000003803F0038003000300000000000780FB
:103A9000078000000000000000000000000000009F
:103AA0000000000000E007F80C0C18063006700358
:103AB00063F36633C673CC63CC62CC66CCE6C7FCDA
:103AC000E0006000700038101FF0000000000000EF
:103AD000000000000000000003C007E006E00E70D8
:103AE0000E700C301C3818183FFC3FFC700E600E36
:103AF000E0070000000000000000000000000000DF
:103B000000000000000000003FF03838381C381C6E
:103B100038383FF03FF8381C380C380C381C3FF868
:103B20003FE0000000000000000000000000000076
:103B300000000000000000E007FC1E043800380010
:103B40003000700070007000300038003C001F9C96
:103B500007FC000000000000000000000000000062
:103B600000000000000000003FF03078301C300CF6
:103B7000300E300E300E300E300E301C30383FF02C
:103B80003FC0000000000000000000000000000036
:103B900000000000000000001FF8180018001800C6
:103BA00018001FF81FF818001800180018001FF858
:103BB0001FF80000000000000000000000000000EE
:103BC00000000000000000001FF818001800180096
:103BD00018001FF81FF81800180018001800180027
:103BE00018000000000000000000000000000000BD
:103BF00000000000000000F007FC1E043800300048
:103C00007000700070FC700C700C300C380C1F1CB5
:103C100007FC0000000000000000000000000000A1
:103C20000000000000000000300C300C300C300CA4
:103C3000300C3FFC3FFC300C300C300C300C300CA6
:103C4000300C000000000000000000000000000038
:103C500000000000000000003FFC018001800180A6
:103C600001800180018001800180018001803FFC92
:103C70003FFC000000000000000000000000000009
:103C800000000000000000001FF000300030003095
:103C900000300030003000300030003000701DE097
:103CA0001FC0000000000000000000000000000035
:103CB0000000000000000000381C387038E039C0F7
:103CC0003B803F003F003B8039C038E038703838D7
:103CD000381C000000000000000000000000000090
:103CE00000000000000000001C001C001C001C0064
:103CF0001C001C001C001C001C001C001C001FFCE5
:103D00001FFC000000000000000000000000000098
:103D10000000000000000000381C7C3C6C3E6E6E11
:103D2000666E66CE63C66386618660066006600660
:103D3000600600000000000000000000000000001D
:103D400000000000000000003C0C3C0C3E0C360C57
:103D5000330C338C318C31CC30EC306C307C303CDB
:103D6000301C000000000000000000000000000007
:103D700000000000000001C00FF81C3C381C700E51
:103D8000700E60066006700E700E700C381C1E7887
:103D90000FE0000000000000000000000000000034
:103DA00000000000000000003FF0383C381C380CD8
:103DB000380C381C38783FE03800380038003800BC
:103DC00038000000000000000000000000000000BB
:103DD00000000000000001C00FF81C3C381C700EF1
:103DE000700E60066006700E700E700C381C1E7827
:103DF0000FE0018001C000FF003C00000000000057
:103E000000000000000000003FF038383818381873
:103E1000383838F03FC038E0387038383838381C17
:103E2000380E00000000000000000000000000004C
:103E300000000000000001E00FF8380038003800F2
:103E40003C001F8003F00078001C001C001C387828
:103E50003FE0000000000000000000000000000043
:103E600000000000000000007FFE01800180018052
:103E7000018001800180018001800180018001803A
:103E800001800000000000000000000000000000B1
:103E90000000000000000000300C300C300C300C32
:103EA000300C300C300C300C300C300C381C1C3802
:103EB0000FF0000000000000000000000000000003
:103EC0000000000000000000E006700E700E381CBC
:103ED000381C1C181C380C300E70066007E003C03C
:103EE00003C000000000000000000000000000000F
:103EF000000000000000000060066006600660062A
:103F00006186638673C673CE766C366C3C3C3C3CF3
:103F1000381C00000000000000000000000000004D
:103F20000000000000000000301C38181C380E7023
:103F300007E003C003C007E00E701C381838381CB7
:103F4000700E0000000000000000000000000000F3
:103F50000000000000000000700E700C381C1C38BF
:103F60000E70066007E003C00180018001800180BF
:103F700001800000000000000000000000000000C0
:103F800000000000000000003FFC001C0038007032
:103F900000E001C0038007000E000C0018003FFC89
:103FA0003FFC0000000000000000000000000000D6
:103FB0000000000007F007F00600060006000600FB
:103FC00006000600060006000600060006000600C1
:103FD000060006000600060007F0000000000000D2
:103FE00000000000000018001C000C000600070084
:103FF00003000380018001C000C000600070003039
:1040000000380018000C0000000000000000000054
:10401000000000000FE00FE0006000600060006042
:104020000060006000600060006000600060006090
:1040300000600060006000600FE000000000000011
:10404000000000000000000003C006C006600C3045
:104050001818301C000000000000000000000000E4
:104060000000000000000000000000000000000050
:104070000000000000000000000000000000000040
:104080000000000000000000000000000000000030
:104090000000000000000000FFFF00000000000022
:1040A0000000000000001E0003800000000000006F
:1040B0000000000000000000000000000000000000
:1040C00000000000000000000000000000000000F0
:1040D00000000000000000000000000000001FF0D1
:1040E0001038001C001C0FFC1C1C381C381C3CFC2D
:1040F0001FDC0000000000000000000000000000C5
:1041000000000000000038003800380038003BF89C
:104110003E1C3C1C380C380C380C380C381C3C78D5
:104120001FE0000000000000000000000000000090
:10413000000000000000000000000000000007F880
:104140000E001C0038003800380038001C000F1822
:1041500007F8000000000000000000000000000060
:10416000000000000000001C001C001C001C0FFCD4
:104170001C1C381C301C301C301C301C383C1CFCF7
:104180000F9C000000000000000000000000000084
:1041900000000000000000000000000000000FF020
:1041A0001C38381C300C3FFC3000300038001E0C2E
:1041B00007FC0000000000000000000000000000FC
:1041C00000000000003C01FE038003000300030028
:1041D0007FFC7FFC030003000300030003000300D7
:1041E00003000000000000000000000000000000CC
:1041F00000000000000000000000000000000FFEB2
:104200001C383818381818381FF03B8030003FF041
:104210001FFC300E700E381C1FF80000000000005C
:1042200000000000000038003800380038003BF87B
:104230003E383C1C381C381C381C381C381C381CB8
:10424000381C00000000000000000000000000001A
:1042500000000000018003C003C0000000001FC078
:1042600001C001C001C001C001C001C001C001C046
:104270003FFC000000000000000000000000000003
:1042800000000000002000700070000000003FF0FF
:10429000007000700070007000700070007000709E
:1042A00000700070007020E03FC0000000000000BF
:1042B0000000000000001800180018001800183C4A
:1042C000187018E01B801F001B8019E01870183848
:1042D000181C0000000000000000000000000000AA
:1042E0000000000000001FC001C001C001C001C0EB
:1042F00001C001C001C001C001C001C001C001C0B6
:104300003FFC000000000000000000000000000072
:1043100000000000000000000000000000006F3CF2
:1043200079EE71CE718E718E718E718E718E718EED
:10433000718E00000000000000000000000000007E
:1043400000000000000000000000000000003BF83A
:104350003E383C1C381C381C381C381C381C381C97
:10436000381C0000000000000000000000000000F9
:1043700000000000000000000000000000000FF03E
:104380001C3C381C700E700E700E700C381C1E78A1
:104390000FE000000000000000000000000000002E
:1043A00000000000000000000000000000003BF8DA
:1043B0003E1C3C1C380C380C380C380C381C3C7833
:1043C0003FE03800380038003800000000000000EE
:1043D00000000000000000000000000000000FFCD2
:1043E0001C1C381C301C301C301C301C383C1CFC85
:1043F0000F9C001C001C001C001C000000000000A2
:10440000000000000000000000000000000019F89B
:104410001F1C1C0C180E180018001800180018009B
:104420001800000000000000000000000000000074
:1044300000000000000000000000000000000FF875
:104440001C0018001E000FC001F8001800181838D2
:104450001FF000000000000000000000000000004D
:1044600000000000000000000600060006007FFCBF
:104470000600060006000600060006000700078486
:1044800001FC00000000000000000000000000002F
:104490000000000000000000000000000000381CC8
:1044A000381C381C381C381C381C381C383C1CFC88
:1044B0000FDC000000000000000000000000000011
:1044C0000000000000000000000000000000700C70
:1044D000381C38181C380C300E70066007E003C01A
:1044E00003C0000000000000000000000000000009
:1044F0000000000000000000000000000000600656
:1045000060066186738E73CC33CC366C366C3C3C63
:104510003C38000000000000000000000000000027
:104520000000000000000000000000000000381C37
:104530001C380E7007E003C003C007E00E701C3883
:10454000381E000000000000000000000000000015
:104550000000000000000000000000000000700CDF
:10456000381C38181C380C300E70066007E003C089
:1045700003C0038007000E007C0000000000000064
:1045800000000000000000000000000000001FF814
:104590000038007000E001C0038007000C001FFC21
:1045A0003FFC0000000000000000000000000000D0
:1045B00000000000007801F803800380038003807E
:1045C000038003003F003E0003000380038003805C
:1045D00003800380038001C000F800000000000099
:1045E00001800180018001800180018001800180C3
:1045F00001800180018001800180018001800180B3
:104600000180018001800180018000000000000025
:10461000000000001E001F80018001C001C001C019
:1046200001C000C000FC007C00C001C001C001C08E
:1046300001C001C001C003801F0000000000000095
:10464000000000000000000000000000000000006A
:1046500000001C003F0671CE60FC0000000000005E
:10466000000000000000000000000000000000004A
:10467000000000000000000000000000000000003A
:10468000000000000000000000000000000000002A
:10469000000000000000000000000000000000001A
:1046A000000000000000000000000000000000000A
:1046B00000000000000000000000000000000000FA
:1046C00000000000000000000000000000000000EA
:1046D0000000000000000000000000000000003C9E
:1046E00000003C00003C00003C00003C00003C009E
:1046F000003C00003C00003C00003C00003C00008E
:104700003C00003C00003C00000000000000003CB9
:1047100000007E00003C00000000000000000000DF
:104720000000000000000000000000000000000089
:10473000000000000000000000000000000003C3B3
:10474000E003C3E003C3C003C3C003C3C003C3C0CB
:1047500003C1C000000000000000000000000000D5
:104760000000000000000000000000000000000049
:104770000000000000000000000000000000000039
:104780000000000000000000000000000000000029
:104790000000000000000000000000000000000019
:1047A0000000000001E0E001C0E001C0E001C0E065
:1047B0003FFFFE3FFFFE03C1C00381C00381C00372
:1047C00081C07FFFFC7FFFFC078380070380070316
:1047D0008007038007078000000000000000000041
:1047E00000000000000000000000000000000000C9
:1047F0000000000000000000000000000700000FA3
:1048000000000E0001FFF007FFF01F0E001E1E004B
:104810001E1C001E1C000FDC0007FC0000FF8000B7
:104820003FF00038F800387800783C00707830713C
:10483000F83FFFE01FFF0000E00000E00000E000A4
:104840000000000000000000000000000000000068
:1048500000000000000000000000000000000F80C9
:104860000F3FE01E78703C7070707070E07071C027
:104870003FE3801FC700000E00001C00007800000E
:10488000F0F001E7FC03CF0E078E0E0F0E0E1E0E8A
:104890000E3C07BC7003F8000000000000000000A0
:1048A0000000000000000000000000000000000008
:1048B00000000000000000000000000000000000F8
:1048C0000001FF0007FF800F03C00F03C00F03C0EC
:1048D0000F0780079F0003FE0003F0000FF83C3E27
:1048E0007C3C3C1F3C780FF87807F87C01F03E03D5
:1048F000F81FFFFC07FE1F00000000000000000082
:1049000000000000000000000000000000000000A7
:104910000000000000000000000000000000003E59
:1049200000003C00003C00003C00003C00003C005B
:10493000003C00000000000000000000000000003B
:104940000000000000000000000000000000000067
:104950000000000000000000000000000000000057
:104960000000000000000000000000000000000047
:1049700000000000000000000000000000800001B6
:10498000C0000780000F00001E00003C00007800FF
:1049900000F00000E00001E00001E00001C00003C1
:1049A000C00003C00001C00001E00001E00000F011
:1049B0000000F000007800003C00001E00000F0026
:1049C0000007C00001C0000000000000000000005F
:1049D000000000000000000000000000000003C014
:1049E0000001E00000F000007C00003E00001E001E
:1049F000000F000007800007800003800003C00054
:104A000003C00003C00003C000038000078000074C
:104A100080000F00001E00003C0000780000F00045
:104A200001E0000380000000000000000000000022
:104A30000000000000000000000000000000001C5A
:104A400000001C000018000F18F007DBE0007F00DA
:104A500000FF0007DBE00E1870001800001C0000CB
:104A60001C0000000000000000000000000000002A
:104A70000000000000000000000000000000000036
:104A80000000000000000000000000000000000026
:104A90000000000000000000000000000000000016
:104AA00000000000000000000000000000003C00CA
:104AB000003C00003C00003C00003C00003C003F8B
:104AC000FFFC3FFFFC003C00003C00003C00003CC1
:104AD00000003C000000000000000000000000009A
:104AE00000000000000000000000000000000000C6
:104AF00000000000000000000000000000000000B6
:104B000000000000000000000000000000000000A5
:104B10000000000000000000000000000000000095
:104B20000000000000000000000000007C00007E8B
:104B300000007E00003E00001E00003C0000F80067
:104B400007E000040000000000000000000000007A
:104B50000000000000000000000000000000000055
:104B60000000000000000000000000000000000045
:104B70000000000000000000000000000000000332
:104B8000FFE003FFE0000000000000000000000064
:104B90000000000000000000000000000000000015
:104BA0000000000000000000000000000000000005
:104BB00000000000000000000000000000000000F5
:104BC00000000000000000000000000000000000E5
:104BD00000000000000000000000000000000000D5
:104BE0000000000000000000000000007C0000FE4B
:104BF0000000FE00007E0000000000000000000039
:104C000000000000000000000000000000000000A4
:104C10000000000000000000000000000000000094
:104C2000780000F00000E00001E00003C000038015
:104C3000000780000F00000E00001E00003C000076
:104C4000380000700000F00000E00001C00003C068
:104C5000000780000700000F00001E00001C00007D
:104C60000000000000000000000000000000000044
:104C70000000000000000000000000000000000034
:104C80000000000001FFC007FFE00F00F01E0078E9
:104C90001E003C3C00FC3C07FC3C1FBC3C7C1C3D1B
:104CA000F03C3FC03C3F003C1E00381E00780F80A7
:104CB000F007FFE001FF800000000000000000009E
:104CC00000000000000000000000000000000000E4
:104CD00000000000000000000000000000000000D4
:104CE00000000000007E0003FE001FDE000E1E001C
:104CF000001E00001E00001E00001E00001E00001E
:104D00001E00001E00001E00001E00001E00001EEF
:104D1000000FFFF80FFFF800000000000000000087
:104D20000000000000000000000000000000000083
:104D30000000000000000000000000000000000073
:104D40000000000003FF800FFFE00E01F00000F004
:104D50000000F00000F00000F00001E00003C000DF
:104D60000F80003E00007C0001F00003C0000F80B7
:104D7000001FFFFC1FFFFC000000000000000000FF
:104D80000000000000000000000000000000000023
:104D90000000000000000000000000000000000013
:104DA000000000000FFF800FFFE00001E00000F0B6
:104DB0000000F00001E00003C001FF0001FFC0009F
:104DC00003F000007800007800007800007800010F
:104DD000F00FFFC00FFF0000000000000000000007
:104DE00000000000000000000000000000000000C3
:104DF00000000000000000000000000000000000B3
:104E000000000000000FC0001FC0003FC0007BC0BA
:104E100000F3C001E3C003C3C00783C00F03C01C7D
:104E200003C03803C07FFFFE7FFFFE0003C0000306
:104E3000C00003C00003C00000000000000000002C
:104E40000000000000000000000000000000000062
:104E50000000000000000000000000000000000052
:104E6000000000000FFFE00FFFE00F00000F000048
:104E70000F00000F00000F00000FFF800FFFE00089
:104E800000F00000780000780000780000F00003D7
:104E9000E00FFFC00FFE0000000000000000000057
:104EA0000000000000000000000000000000000002
:104EB00000000000000000000000000000000000F2
:104EC00000000000003FF001FFF003E00007800059
:104ED0000F00001E00001E1F001FFFE01FC1F81E74
:104EE00000781E003C1E003C1E003C0F00780F8026
:104EF000F807FFE001FF8000000000000000000054
:104F000000000000000000000000000000000000A1
:104F10000000000000000000000000000000000091
:104F2000000000001FFFFC1FFFFC0000780000F0E5
:104F30000000E00001E00003C0000780000F000057
:104F40000F00001E00003C0000780000F00001F09F
:104F50000001E00003C000000000000000000000AD
:104F60000000000000000000000000000000000041
:104F70000000000000000000000000000000000031
:104F80000000000003FFE00FE3F00F00781E007840
:104F90001E00780F00F007E3E001FF8001FF8007AB
:104FA000E7E00F00F81E00781E003C1E007C1F008A
:104FB000F80FFFF003FFC000000000000000000039
:104FC00000000000000000000000000000000000E1
:104FD00000000000000000000000000000000000D1
:104FE0000000000003FF800FC7E01E00F01E0078E5
:104FF0003C00783C00783C00381E00780FEFF80742
:10500000FFB80000780000780000F00001E0000F19
:10501000C00FFF000FF000000000000000000000C3
:105020000000000000000000000000000000000080
:105030000000000000000000000000000000000070
:105040000000000000000000000000000000000060
:10505000007E00007E00007E0000180000000000BE
:105060000000000000000000000000003C00007E86
:1050700000007E00003E0000000000000000000074
:105080000000000000000000000000000000000020
:105090000000000000000000000000000000000010
:1050A0000000000000000000000000000000000000
:1050B000007E00007E00007E00001800000000005E
:1050C0000000000000000000000000003E00007E24
:1050D00000007F00001F00001E00001E0000FC00FA
:1050E00007F00004000000000000000000000000C5
:1050F00000000000000000000000000000000000B0
:10510000000000000000000000000000400001E07E
:105110000007C0001F00007E0001F80003E0000F40
:1051200080000F800003E00000F800003E00000F48
:10513000800003E00000E00000000000000000002C
:10514000000000000000000000000000000000005F
:10515000000000000000000000000000000000004F
:10516000000000000000000000000000000000003F
:105170000000000000000000001FFFF80000000019
:1051800000000000001FFFF81FFFF80000000000F3
:10519000000000000000000000000000000000000F
:1051A00000000000000000000000000000000000FF
:1051B00000000000000000000000000000000000EF
:1051C0000000000000000000000000000007800058
:1051D00003E00000F800003E00000F800003E00044
:1051E00000F80001F00007C0001F00007C0001F083
:1051F0000007C000030000000000000000000000E5
:10520000000000000000000000000000000000009E
:10521000000000000000000000000000000001C0CD
:105220000001FE00007F800007C00001E00000F0E8
:105230000000F00001F00003E0007FC0007E0000ED
:10524000700000700000700000000000000000F816
:105250000000F80000F8000000000000000000005E
:10526000000000000000000000000000000000003E
:105270000000000000000000000000000000001F0F
:105280008000FFF003C07807801C0E000E1C000E8B
:105290003C000F383FC778FFC770E3C771C3C7F33F
:1052A000C387E3C387E3878EE3878EE3CF8EE3FF75
:1052B000FC71F9F07000007000003800003C000044
:1052C0000F01C007FFC00000000000000000000048
:1052D00000000000000000000000000000000000CE
:1052E00000000000007E00007F0000FF0000E7805B
:1052F00001E78003C3C003C3C00781E00781E00F5B
:1053000000F00F00F81FFFF81FFFFC3C003C3C00C2
:105310001E78001EF0000F000000000000000000DA
:10532000000000000000000000000000000000007D
:10533000000000000000000000000000000000006D
:10534000000000001FFFC01FFFF01E00F01E0078CD
:105350001E00781E00F01E01F01FFFC01FFFE01EA0
:1053600001F81E00781E003C1E003C1E00781E0046
:10537000F81FFFE01FFF0000000000000000000019
:10538000000000000000000000000000000000001D
:10539000000000000000000000000000000000000D
:1053A0000000000000FFF803FFF807C0000F000036
:1053B0001E00001E00003C00003C00003C00003CC1
:1053C00000003C00003E00001E00000F00000FC067
:1053D0000803FFF800FFF8000000000000000000D4
:1053E00000000000000000000000000000000000BD
:1053F00000000000000000000000000000000000AD
:10540000000000003FFF003FFFE03C01F03C00785F
:105410003C003C3C003C3C003C3C001E3C001E3C34
:10542000001E3C003C3C003C3C00783C00F83C0743
:10543000E03FFFC03FFC0000000000000000000053
:10544000000000000000000000000000000000005C
:10545000000000000000000000000000000000004C
:10546000000000000FFFF00FFFF00F00000F000022
:105470000F00000F00000F00000FFFF00FFFF00FF4
:1054800000000F00000F00000F00000F00000F00D1
:10549000000FFFF00FFFF000000000000000000010
:1054A00000000000000000000000000000000000FC
:1054B00000000000000000000000000000000000EC
:1054C000000000000FFFF00FFFF00F00000F0000C2
:1054D0000F00000F00000F00000FFFF00FFFF00F94
:1054E00000000F00000F00000F00000F00000F0071
:1054F000000F00000F00000000000000000000008E
:10550000000000000000000000000000000000009B
:10551000000000000000000000000000000000008B
:105520000000000000FFFC03FFFC0FC0041F000090
:105530001E00003C00003C0000780FFC780FFC7857
:10554000003C3C003C3C003C3E003C1F003C0FC08B
:105550003C03FFFC00FFF80000000000000000001A
:10556000000000000000000000000000000000003B
:10557000000000000000000000000000000000002B
:10558000000000003C003C3C003C3C003C3C003C3B
:105590003C003C3C003C3C003C3FFFFC3FFFFC3CF3
:1055A000003C3C003C3C003C3C003C3C003C3C00A3
:1055B0003C3C003C3C003C000000000000000000BF
:1055C00000000000000000000000000000000000DB
:1055D00000000000000000000000000000000000CB
:1055E000000000000FFFF80FFFF8003C00003C0037
:1055F000003C00003C00003C00003C00003C00007F
:105600003C00003C00003C00003C00003C00003C32
:10561000000FFFF80FFFF80000000000000000007E
:10562000000000000000000000000000000000007A
:10563000000000000000000000000000000000006A
:10564000000000000FFFE00FFFE00001E00001E0BC
:105650000001E00001E00001E00001E00001E000E5
:1056600001E00001E00001E00001E00003C00C07E0
:10567000C00FFF8007FE00000000000000000000D7
:10568000000000000000000000000000000000001A
:10569000000000000000000000000000000000000A
:1056A000000000001E00781E01F01E03C01E0780CF
:1056B0001E1F001E3C001E78001EF0001FF0001E82
:1056C000F8001E3C001E1E001E0F801E07C01E019B
:1056D000E01E00F81E007C0000000000000000003A
:1056E00000000000000000000000000000000000BA
:1056F00000000000000000000000000000000000AA
:10570000000000000780000780000780000780007D
:1057100007800007800007800007800007800007DF
:105720008000078000078000078000078000078056
:105730000007FFF807FFF80000000000000000006D
:105740000000000000000000000000000000000059
:105750000000000000000000000000000000000049
:10576000000000003E007C3F00FC3F81DC3B81DC10
:105770003BC39C39C39C38E71C38EF1C387E1C386F
:105780007C1E383C1E78001E78001E78001E7800B3
:105790001E78001E78001E000000000000000000BF
:1057A00000000000000000000000000000000000F9
:1057B00000000000000000000000000000000000E9
:1057C000000000001F003C1F803C1FC03C1DC03C6F
:1057D0001DE03C1CF03C1C783C1C783C1C3C3C1CF8
:1057E0001E3C1C0F3C1C0F3C1C07BC1C03FC1C017A
:1057F000FC1C00FC1C00FC0000000000000000007D
:105800000000000000000000000000000000000098
:105810000000000000000000000000000000000088
:105820000000000001FFC007FFF00F00F81E007C21
:105830003C003C3C001E78001E78001E78001E785C
:10584000001E78001E3C003C3C003C1E00781F00FF
:10585000F007FFE001FF80000000000000000000F2
:105860000000000000000000000000000000000038
:105870000000000000000000000000000000000028
:10588000000000001FFF801FFFF01E00F81E007CBC
:105890001E003C1E003C1E003C1E00781E03F01F34
:1058A000FFC01FFE001E00001E00001E00001E00A4
:1058B000001E00001E0000000000000000000000AC
:1058C00000000000000000000000000000000000D8
:1058D00000000000000000000000000000000000C8
:1058E0000000000001FFC007FFF00F00F81E007C61
:1058F0003C003C3C001E78001E78001E78001E789C
:10590000001E78001E3C003C3C003C1E00781F80BE
:10591000F007FFE001FF80003C00003C00001F0694
:10592000000FFF0001F80000000000000000000070
:105930000000000000000000000000000000000067
:10594000000000000FFF800FFFE00E01F00E00F0DE
:105950000E00F00E00F00E01F00FFFC00FFF000E62
:105960001F000E07800E03C00E01E00E00F00E00B7
:10597000F80E00780E003C0000000000000000005F
:105980000000000000000000000000000000000017
:105990000000000000000000000000000000000007
:1059A0000000000003FFF00FFFF01F00001E0000CA
:1059B0001E00001F00000FC00007FC0000FF800059
:1059C0000FF00001F8000078000078000078200057
:1059D000F83FFFE03FFF80000000000000000000F3
:1059E00000000000000000000000000000000000B7
:1059F00000000000000000000000000000000000A7
:105A0000000000003FFFFC3FFFFC003C00003C00AA
:105A1000003C00003C00003C00003C00003C00005A
:105A20003C00003C00003C00003C00003C00003C0E
:105A300000003C00003C00000000000000000000EE
:105A40000000000000000000000000000000000056
:105A50000000000000000000000000000000000046
:105A6000000000003C003C3C003C3C003C3C003C56
:105A70003C003C3C003C3C003C3C003C3C003C3C92
:105A8000003C3C003C3C003C3C003C1E00781F00BD
:105A9000F80FFFE003FF800000000000000000009E
:105AA00000000000000000000000000000000000F6
:105AB00000000000000000000000000000000000E6
:105AC00000000000F8000F78001E3C001E3C003C67
:105AD0001E00381E00780F00700F00F00781E007ED
